{
  "contractName": "BrainLootbox",
  "abi": [
    {
      "inputs": [
        {
          "internalType": "address",
          "name": "_brainFarm",
          "type": "address"
        },
        {
          "internalType": "address",
          "name": "_lockedLPFarm",
          "type": "address"
        },
        {
          "internalType": "address",
          "name": "_NFTAddress",
          "type": "address"
        }
      ],
      "stateMutability": "nonpayable",
      "type": "constructor"
    },
    {
      "anonymous": false,
      "inputs": [
        {
          "indexed": false,
          "internalType": "uint256",
          "name": "id",
          "type": "uint256"
        }
      ],
      "name": "AddLootBox",
      "type": "event"
    },
    {
      "anonymous": false,
      "inputs": [
        {
          "indexed": false,
          "internalType": "address",
          "name": "user",
          "type": "address"
        },
        {
          "indexed": false,
          "internalType": "uint256",
          "name": "id",
          "type": "uint256"
        },
        {
          "indexed": false,
          "internalType": "uint256",
          "name": "card",
          "type": "uint256"
        }
      ],
      "name": "CardRedeemed",
      "type": "event"
    },
    {
      "anonymous": false,
      "inputs": [
        {
          "indexed": true,
          "internalType": "address",
          "name": "previousOwner",
          "type": "address"
        },
        {
          "indexed": true,
          "internalType": "address",
          "name": "newOwner",
          "type": "address"
        }
      ],
      "name": "OwnershipTransferred",
      "type": "event"
    },
    {
      "inputs": [],
      "name": "NFTAddress",
      "outputs": [
        {
          "internalType": "address",
          "name": "",
          "type": "address"
        }
      ],
      "stateMutability": "view",
      "type": "function",
      "constant": true
    },
    {
      "inputs": [
        {
          "internalType": "address",
          "name": "",
          "type": "address"
        }
      ],
      "name": "isFarmAddress",
      "outputs": [
        {
          "internalType": "bool",
          "name": "",
          "type": "bool"
        }
      ],
      "stateMutability": "view",
      "type": "function",
      "constant": true
    },
    {
      "inputs": [
        {
          "internalType": "uint256",
          "name": "",
          "type": "uint256"
        }
      ],
      "name": "lootbox",
      "outputs": [
        {
          "internalType": "uint256",
          "name": "seed",
          "type": "uint256"
        },
        {
          "internalType": "string",
          "name": "name",
          "type": "string"
        },
        {
          "internalType": "uint256",
          "name": "price",
          "type": "uint256"
        },
        {
          "internalType": "uint256",
          "name": "totalCards",
          "type": "uint256"
        }
      ],
      "stateMutability": "view",
      "type": "function",
      "constant": true
    },
    {
      "inputs": [],
      "name": "owner",
      "outputs": [
        {
          "internalType": "address",
          "name": "",
          "type": "address"
        }
      ],
      "stateMutability": "view",
      "type": "function",
      "constant": true
    },
    {
      "inputs": [],
      "name": "renounceOwnership",
      "outputs": [],
      "stateMutability": "nonpayable",
      "type": "function"
    },
    {
      "inputs": [
        {
          "internalType": "address",
          "name": "newOwner",
          "type": "address"
        }
      ],
      "name": "transferOwnership",
      "outputs": [],
      "stateMutability": "nonpayable",
      "type": "function"
    },
    {
      "inputs": [
        {
          "internalType": "uint256",
          "name": "_id",
          "type": "uint256"
        }
      ],
      "name": "getPrice",
      "outputs": [
        {
          "internalType": "uint256",
          "name": "",
          "type": "uint256"
        }
      ],
      "stateMutability": "view",
      "type": "function",
      "constant": true
    },
    {
      "inputs": [
        {
          "internalType": "string",
          "name": "_name",
          "type": "string"
        },
        {
          "internalType": "uint256",
          "name": "_price",
          "type": "uint256"
        },
        {
          "internalType": "uint256[]",
          "name": "_cardAmounts",
          "type": "uint256[]"
        }
      ],
      "name": "addLootBox",
      "outputs": [
        {
          "internalType": "uint256[]",
          "name": "",
          "type": "uint256[]"
        }
      ],
      "stateMutability": "nonpayable",
      "type": "function"
    },
    {
      "inputs": [
        {
          "internalType": "uint256",
          "name": "_id",
          "type": "uint256"
        }
      ],
      "name": "remainingCards",
      "outputs": [
        {
          "internalType": "uint256",
          "name": "",
          "type": "uint256"
        }
      ],
      "stateMutability": "view",
      "type": "function",
      "constant": true
    },
    {
      "inputs": [
        {
          "internalType": "uint256",
          "name": "id",
          "type": "uint256"
        },
        {
          "internalType": "address",
          "name": "to",
          "type": "address"
        }
      ],
      "name": "redeem",
      "outputs": [],
      "stateMutability": "nonpayable",
      "type": "function"
    }
  ],
  "bytecode": "0x608060405234801561001057600080fd5b50604051611a76380380611a768339818101604052606081101561003357600080fd5b8101908080519060200190929190805190602001909291908051906020019092919050505060006100686101ff60201b60201c565b9050806000806101000a81548173ffffffffffffffffffffffffffffffffffffffff021916908373ffffffffffffffffffffffffffffffffffffffff1602179055508073ffffffffffffffffffffffffffffffffffffffff16600073ffffffffffffffffffffffffffffffffffffffff167f8be0079c531659141344cd1fd0a4f28419497f9722a3daafe3b4186f6b6457e060405160405180910390a3506001600260008573ffffffffffffffffffffffffffffffffffffffff1673ffffffffffffffffffffffffffffffffffffffff16815260200190815260200160002060006101000a81548160ff0219169083151502179055506001600260008473ffffffffffffffffffffffffffffffffffffffff1673ffffffffffffffffffffffffffffffffffffffff16815260200190815260200160002060006101000a81548160ff02191690831515021790555080600160006101000a81548173ffffffffffffffffffffffffffffffffffffffff021916908373ffffffffffffffffffffffffffffffffffffffff160217905550505050610207565b600033905090565b611860806102166000396000f3fe608060405234801561001057600080fd5b506004361061009e5760003560e01c80638da5cb5b116100665780638da5cb5b146101e357806392e115001461022d578063961180fe146102e9578063e757223014610497578063f2fde38b146104d95761009e565b80632b70b96d146100a35780632edc6283146100e5578063310c87cc14610141578063715018a61461018b5780637bde82f214610195575b600080fd5b6100cf600480360360208110156100b957600080fd5b810190808035906020019092919050505061051d565b6040518082815260200191505060405180910390f35b610127600480360360208110156100fb57600080fd5b81019080803573ffffffffffffffffffffffffffffffffffffffff16906020019092919050505061053d565b604051808215151515815260200191505060405180910390f35b61014961055d565b604051808273ffffffffffffffffffffffffffffffffffffffff1673ffffffffffffffffffffffffffffffffffffffff16815260200191505060405180910390f35b610193610583565b005b6101e1600480360360408110156101ab57600080fd5b8101908080359060200190929190803573ffffffffffffffffffffffffffffffffffffffff16906020019092919050505061070b565b005b6101eb610ca1565b604051808273ffffffffffffffffffffffffffffffffffffffff1673ffffffffffffffffffffffffffffffffffffffff16815260200191505060405180910390f35b6102596004803603602081101561024357600080fd5b8101908080359060200190929190505050610cca565b6040518085815260200180602001848152602001838152602001828103825285818151815260200191508051906020019080838360005b838110156102ab578082015181840152602081019050610290565b50505050905090810190601f1680156102d85780820380516001836020036101000a031916815260200191505b509550505050505060405180910390f35b610440600480360360608110156102ff57600080fd5b810190808035906020019064010000000081111561031c57600080fd5b82018360208201111561032e57600080fd5b8035906020019184600183028401116401000000008311171561035057600080fd5b91908080601f016020809104026020016040519081016040528093929190818152602001838380828437600081840152601f19601f82011690508083019250505050505050919291929080359060200190929190803590602001906401000000008111156103bd57600080fd5b8201836020820111156103cf57600080fd5b803590602001918460208302840111640100000000831117156103f157600080fd5b919080806020026020016040519081016040528093929190818152602001838360200280828437600081840152601f19601f820116905080830192505050505050509192919290505050610d92565b6040518080602001828103825283818151815260200191508051906020019060200280838360005b83811015610483578082015181840152602081019050610468565b505050509050019250505060405180910390f35b6104c3600480360360208110156104ad57600080fd5b810190808035906020019092919050505061121e565b6040518082815260200191505060405180910390f35b61051b600480360360208110156104ef57600080fd5b81019080803573ffffffffffffffffffffffffffffffffffffffff16906020019092919050505061123e565b005b600060046000838152602001908152602001600020600501549050919050565b60026020528060005260406000206000915054906101000a900460ff1681565b600160009054906101000a900473ffffffffffffffffffffffffffffffffffffffff1681565b61058b61144b565b73ffffffffffffffffffffffffffffffffffffffff166000809054906101000a900473ffffffffffffffffffffffffffffffffffffffff1673ffffffffffffffffffffffffffffffffffffffff161461064c576040517f08c379a00000000000000000000000000000000000000000000000000000000081526004018080602001828103825260208152602001807f4f776e61626c653a2063616c6c6572206973206e6f7420746865206f776e657281525060200191505060405180910390fd5b600073ffffffffffffffffffffffffffffffffffffffff166000809054906101000a900473ffffffffffffffffffffffffffffffffffffffff1673ffffffffffffffffffffffffffffffffffffffff167f8be0079c531659141344cd1fd0a4f28419497f9722a3daafe3b4186f6b6457e060405160405180910390a360008060006101000a81548173ffffffffffffffffffffffffffffffffffffffff021916908373ffffffffffffffffffffffffffffffffffffffff160217905550565b60011515600260003373ffffffffffffffffffffffffffffffffffffffff1673ffffffffffffffffffffffffffffffffffffffff16815260200190815260200160002060009054906101000a900460ff161515146107b4576040517f08c379a00000000000000000000000000000000000000000000000000000000081526004018080602001828103825260228152602001806118096022913960400191505060405180910390fd5b600082141580156107c757506003548211155b610839576040517f08c379a00000000000000000000000000000000000000000000000000000000081526004018080602001828103825260168152602001807f4c6f6f74626f7820646f6573206e6f742065786973740000000000000000000081525060200191505060405180910390fd5b60006004600084815260200190815260200160002060050154116108c5576040517f08c379a00000000000000000000000000000000000000000000000000000000081526004018080602001828103825260188152602001807f4e6f206361726473206c65667420696e206c6f6f74626f78000000000000000081525060200191505060405180910390fd5b6000426004600085815260200190815260200160002060050154600460008681526020019081526020016000206000015444604051602001808581526020018481526020018381526020018281526020019450505050506040516020818303038152906040528051906020012060001c9050806004600085815260200190815260200160002060000181905550600061097d60046000868152602001908152602001600020600501548361145390919063ffffffff16565b905060006060600460008781526020019081526020016000206004018054806020026020016040519081016040528092919081815260200182805480156109e357602002820191906000526020600020905b8154815260200190600101908083116109cf575b5050505050905060008090505b6004600088815260200190815260200160002060030180549050811015610c9857610a37828281518110610a2057fe5b60200260200101518461149d90919063ffffffff16565b925082841015610c8b57600160009054906101000a900473ffffffffffffffffffffffffffffffffffffffff1673ffffffffffffffffffffffffffffffffffffffff1663156e29f687600460008b81526020019081526020016000206003018481548110610aa157fe5b906000526020600020015460016040518463ffffffff1660e01b8152600401808473ffffffffffffffffffffffffffffffffffffffff1673ffffffffffffffffffffffffffffffffffffffff1681526020018381526020018281526020019350505050600060405180830381600087803b158015610b1e57600080fd5b505af1158015610b32573d6000803e3d6000fd5b50505050610b756001600460008a81526020019081526020016000206004018381548110610b5c57fe5b906000526020600020015461152590919063ffffffff16565b600460008981526020019081526020016000206004018281548110610b9657fe5b9060005260206000200181905550610bce6001600460008a81526020019081526020016000206005015461152590919063ffffffff16565b60046000898152602001908152602001600020600501819055507f058da99d6d24b344bbc9d782234b5b6375d9223e994c5aafd2b499f77019c86f8688600460008b81526020019081526020016000206003018481548110610c2c57fe5b9060005260206000200154604051808473ffffffffffffffffffffffffffffffffffffffff1673ffffffffffffffffffffffffffffffffffffffff168152602001838152602001828152602001935050505060405180910390a1610c98565b80806001019150506109f0565b50505050505050565b60008060009054906101000a900473ffffffffffffffffffffffffffffffffffffffff16905090565b6004602052806000526040600020600091509050806000015490806001018054600181600116156101000203166002900480601f016020809104026020016040519081016040528092919081815260200182805460018160011615610100020316600290048015610d7c5780601f10610d5157610100808354040283529160200191610d7c565b820191906000526020600020905b815481529060010190602001808311610d5f57829003601f168201915b5050505050908060020154908060050154905084565b6060610d9c61144b565b73ffffffffffffffffffffffffffffffffffffffff166000809054906101000a900473ffffffffffffffffffffffffffffffffffffffff1673ffffffffffffffffffffffffffffffffffffffff1614610e5d576040517f08c379a00000000000000000000000000000000000000000000000000000000081526004018080602001828103825260208152602001807f4f776e61626c653a2063616c6c6572206973206e6f7420746865206f776e657281525060200191505060405180910390fd5b60008311610ed3576040517f08c379a000000000000000000000000000000000000000000000000000000000815260040180806020018281038252601c8152602001807f5072696365206d7573742062652067726561746572207468616e20300000000081525060200191505060405180910390fd5b610ee9600160035461149d90919063ffffffff16565b600381905550836004600060035481526020019081526020016000206001019080519060200190610f1b9291906116f0565b508260046000600354815260200190815260200160002060020181905550816004600060035481526020019081526020016000206004019080519060200190610f65929190611770565b50600080600090505b83518110156110ad57610f9d848281518110610f8657fe5b60200260200101518361149d90919063ffffffff16565b9150600460006003548152602001908152602001600020600301600160009054906101000a900473ffffffffffffffffffffffffffffffffffffffff1673ffffffffffffffffffffffffffffffffffffffff1663f9e5375586848151811061100157fe5b60200260200101516040518263ffffffff1660e01b815260040180828152602001915050602060405180830381600087803b15801561103f57600080fd5b505af1158015611053573d6000803e3d6000fd5b505050506040513d602081101561106957600080fd5b810190808051906020019092919050505090806001815401808255809150506001900390600052602060002001600090919091909150558080600101915050610f6e565b508060046000600354815260200190815260200160002060050181905550428486446040516020018085815260200184815260200183805190602001908083835b6020831061111157805182526020820191506020810190506020830392506110ee565b6001836020036101000a0380198251168184511680821785525050505050509050018281526020019450505050506040516020818303038152906040528051906020012060001c600460006003548152602001908152602001600020600001819055507fb08c79c93ae18d69be55bf9215d97ca32afedca8b9425945a9e9575f6ed147c76003546040518082815260200191505060405180910390a160046000600354815260200190815260200160002060030180548060200260200160405190810160405280929190818152602001828054801561120f57602002820191906000526020600020905b8154815260200190600101908083116111fb575b50505050509150509392505050565b600060046000838152602001908152602001600020600201549050919050565b61124661144b565b73ffffffffffffffffffffffffffffffffffffffff166000809054906101000a900473ffffffffffffffffffffffffffffffffffffffff1673ffffffffffffffffffffffffffffffffffffffff1614611307576040517f08c379a00000000000000000000000000000000000000000000000000000000081526004018080602001828103825260208152602001807f4f776e61626c653a2063616c6c6572206973206e6f7420746865206f776e657281525060200191505060405180910390fd5b600073ffffffffffffffffffffffffffffffffffffffff168173ffffffffffffffffffffffffffffffffffffffff16141561138d576040517f08c379a00000000000000000000000000000000000000000000000000000000081526004018080602001828103825260268152602001806117e36026913960400191505060405180910390fd5b8073ffffffffffffffffffffffffffffffffffffffff166000809054906101000a900473ffffffffffffffffffffffffffffffffffffffff1673ffffffffffffffffffffffffffffffffffffffff167f8be0079c531659141344cd1fd0a4f28419497f9722a3daafe3b4186f6b6457e060405160405180910390a3806000806101000a81548173ffffffffffffffffffffffffffffffffffffffff021916908373ffffffffffffffffffffffffffffffffffffffff16021790555050565b600033905090565b600061149583836040518060400160405280601881526020017f536166654d6174683a206d6f64756c6f206279207a65726f000000000000000081525061156f565b905092915050565b60008082840190508381101561151b576040517f08c379a000000000000000000000000000000000000000000000000000000000815260040180806020018281038252601b8152602001807f536166654d6174683a206164646974696f6e206f766572666c6f77000000000081525060200191505060405180910390fd5b8091505092915050565b600061156783836040518060400160405280601e81526020017f536166654d6174683a207375627472616374696f6e206f766572666c6f770000815250611630565b905092915050565b600080831415829061161c576040517f08c379a00000000000000000000000000000000000000000000000000000000081526004018080602001828103825283818151815260200191508051906020019080838360005b838110156115e15780820151818401526020810190506115c6565b50505050905090810190601f16801561160e5780820380516001836020036101000a031916815260200191505b509250505060405180910390fd5b5082848161162657fe5b0690509392505050565b60008383111582906116dd576040517f08c379a00000000000000000000000000000000000000000000000000000000081526004018080602001828103825283818151815260200191508051906020019080838360005b838110156116a2578082015181840152602081019050611687565b50505050905090810190601f1680156116cf5780820380516001836020036101000a031916815260200191505b509250505060405180910390fd5b5060008385039050809150509392505050565b828054600181600116156101000203166002900490600052602060002090601f016020900481019282601f1061173157805160ff191683800117855561175f565b8280016001018555821561175f579182015b8281111561175e578251825591602001919060010190611743565b5b50905061176c91906117bd565b5090565b8280548282559060005260206000209081019282156117ac579160200282015b828111156117ab578251825591602001919060010190611790565b5b5090506117b991906117bd565b5090565b6117df91905b808211156117db5760008160009055506001016117c3565b5090565b9056fe4f776e61626c653a206e6577206f776e657220697320746865207a65726f20616464726573734f6e6c79204e4654204661726d2063616e2063616c6c2074686973206d6574686f64a2646970667358221220d117ceb9641093689e330acc6a5d4351adc0fd5ec00f334256bffc3dc6863cf664736f6c63430006020033",
  "source": "// Brain/WETH Locked LP\n// https://nobrainer.finance/\n// SPDX-License-Identifier: MIT\npragma solidity ^0.6.2;\n\nimport \"@openzeppelin/contracts/access/Ownable.sol\";\nimport \"@openzeppelin/contracts/math/SafeMath.sol\";\n\ninterface IBrainNFT {\n  function addCard(uint256 maxSupply) external returns (uint256);\n  function mint(address to, uint256 id, uint256 amount) external;\n}\n\ncontract BrainLootbox is Ownable {\n  using SafeMath for uint256;\n  address public NFTAddress;\n  mapping(address => bool) public isFarmAddress;\n\n  constructor(address _brainFarm, address _lockedLPFarm, address _NFTAddress) public {\n    isFarmAddress[_brainFarm] = true;\n    isFarmAddress[_lockedLPFarm] = true;\n    NFTAddress = _NFTAddress;\n  }\n\n  event AddLootBox(uint256 id);\n  event CardRedeemed(address user, uint256 id, uint256 card);\n\n  uint256 private createdLootboxes;\n  mapping(uint256 => LootBox) public lootbox;\n\n  function getPrice(uint256 _id) public view returns (uint256) {\n    return lootbox[_id].price;\n  }\n\n  struct LootBox {\n    uint256 seed;\n    string name;\n    uint256 price;\n    uint256[] cardIds;\n    uint256[] cardAmounts;\n    uint256 totalCards;\n  }\n\n  function addLootBox(string memory _name, uint256 _price, uint256[] memory _cardAmounts) public onlyOwner returns (uint256[] memory) {\n    require(_price > 0, \"Price must be greater than 0\");\n    createdLootboxes = createdLootboxes.add(1);\n    lootbox[createdLootboxes].name = _name;\n    lootbox[createdLootboxes].price = _price;\n    lootbox[createdLootboxes].cardAmounts = _cardAmounts;\n    uint256 total;\n    for (uint256 i = 0; i < _cardAmounts.length; i++) {\n      total = total.add(_cardAmounts[i]);\n      lootbox[createdLootboxes].cardIds.push(IBrainNFT(NFTAddress).addCard(_cardAmounts[i]));\n    }\n    lootbox[createdLootboxes].totalCards = total;\n    lootbox[createdLootboxes].seed = uint256(keccak256(abi.encodePacked(now, _price, _name, block.difficulty)));\n    emit AddLootBox(createdLootboxes);\n    return lootbox[createdLootboxes].cardIds;\n  }\n\n  function remainingCards(uint256 _id) public view returns (uint256) {\n    return lootbox[_id].totalCards;\n  }\n\n  function redeem(uint256 id, address to) public {\n    require(isFarmAddress[msg.sender] == true, \"Only NFT Farm can call this method\");\n    require(id != 0 && id <= createdLootboxes, \"Lootbox does not exist\");\n    require(lootbox[id].totalCards > 0, \"No cards left in lootbox\");\n    uint256 rand = uint256(keccak256(abi.encodePacked(now, lootbox[id].totalCards, lootbox[id].seed, block.difficulty)));\n    lootbox[id].seed = rand;\n    uint256 pickedCard = rand.mod(lootbox[id].totalCards);\n    uint256 counted;\n    uint256[] memory _cardAmounts = lootbox[id].cardAmounts;\n    for (uint256 i = 0; i < lootbox[id].cardIds.length; i++) {\n      counted = counted.add(_cardAmounts[i]);\n      if (pickedCard < counted) {\n        IBrainNFT(NFTAddress).mint(to, lootbox[id].cardIds[i], 1);\n        lootbox[id].cardAmounts[i] = lootbox[id].cardAmounts[i].sub(1);\n        lootbox[id].totalCards = lootbox[id].totalCards.sub(1);\n        emit CardRedeemed(to, id, lootbox[id].cardIds[i]);\n        break;\n      }\n    }\n  }\n}\n",
  "sourcePath": "/home/jimmy/DecentralisedTech/projects/work/NoBrainer.Finance/Contracts/contracts/BrainLootbox.sol",
  "compiler": {
    "name": "solc",
    "version": "0.6.2+commit.bacdbe57.Emscripten.clang"
  },
  "schemaVersion": "3.2.4",
  "updatedAt": "2020-10-07T19:10:23.103Z",
  "networkType": "ethereum",
  "devdoc": {
    "methods": {
      "owner()": {
        "details": "Returns the address of the current owner."
      },
      "renounceOwnership()": {
        "details": "Leaves the contract without owner. It will not be possible to call `onlyOwner` functions anymore. Can only be called by the current owner.     * NOTE: Renouncing ownership will leave the contract without an owner, thereby removing any functionality that is only available to the owner."
      },
      "transferOwnership(address)": {
        "details": "Transfers ownership of the contract to a new account (`newOwner`). Can only be called by the current owner."
      }
    }
  },
  "userdoc": {
    "methods": {}
  }
}