{
  "contractName": "FeeDistributor",
  "abi": [
    {
      "inputs": [],
      "name": "brainAddress",
      "outputs": [
        {
          "internalType": "address",
          "name": "",
          "type": "address"
        }
      ],
      "stateMutability": "view",
      "type": "function"
    },
    {
      "inputs": [],
      "name": "burnAddress",
      "outputs": [
        {
          "internalType": "address",
          "name": "",
          "type": "address"
        }
      ],
      "stateMutability": "view",
      "type": "function"
    },
    {
      "inputs": [],
      "name": "burnRatio",
      "outputs": [
        {
          "internalType": "uint256",
          "name": "",
          "type": "uint256"
        }
      ],
      "stateMutability": "view",
      "type": "function"
    },
    {
      "inputs": [],
      "name": "devAddress1",
      "outputs": [
        {
          "internalType": "address",
          "name": "",
          "type": "address"
        }
      ],
      "stateMutability": "view",
      "type": "function"
    },
    {
      "inputs": [],
      "name": "devAddress2",
      "outputs": [
        {
          "internalType": "address",
          "name": "",
          "type": "address"
        }
      ],
      "stateMutability": "view",
      "type": "function"
    },
    {
      "inputs": [],
      "name": "devRatio1",
      "outputs": [
        {
          "internalType": "uint256",
          "name": "",
          "type": "uint256"
        }
      ],
      "stateMutability": "view",
      "type": "function"
    },
    {
      "inputs": [],
      "name": "devRatio2",
      "outputs": [
        {
          "internalType": "uint256",
          "name": "",
          "type": "uint256"
        }
      ],
      "stateMutability": "view",
      "type": "function"
    },
    {
      "inputs": [],
      "name": "farmAddress",
      "outputs": [
        {
          "internalType": "address",
          "name": "",
          "type": "address"
        }
      ],
      "stateMutability": "view",
      "type": "function"
    },
    {
      "inputs": [],
      "name": "farmRatio",
      "outputs": [
        {
          "internalType": "uint256",
          "name": "",
          "type": "uint256"
        }
      ],
      "stateMutability": "view",
      "type": "function"
    },
    {
      "inputs": [],
      "name": "pendingFarmAmount",
      "outputs": [
        {
          "internalType": "uint256",
          "name": "",
          "type": "uint256"
        }
      ],
      "stateMutability": "view",
      "type": "function"
    },
    {
      "inputs": [],
      "name": "processTransfer",
      "outputs": [],
      "stateMutability": "nonpayable",
      "type": "function"
    }
  ],
  "bytecode": "0x608060405260016000806101000a81548173ffffffffffffffffffffffffffffffffffffffff021916908373ffffffffffffffffffffffffffffffffffffffff1602179055506101f46001557308d19746ee0c0833fc5eaf98181eb91daeeb9abb600260006101000a81548173ffffffffffffffffffffffffffffffffffffffff021916908373ffffffffffffffffffffffffffffffffffffffff1602179055506101f460035573b03832fe8f62b27f5e278f0eee65b5ace875d984600460006101000a81548173ffffffffffffffffffffffffffffffffffffffff021916908373ffffffffffffffffffffffffffffffffffffffff1602179055506101f460055561213460075534801561011357600080fd5b50610bd6806101236000396000f3fe608060405234801561001057600080fd5b50600436106100a95760003560e01c806370d5ae051161007157806370d5ae051461015c578063738f88a5146101a6578063c5632be5146101f0578063d6e182ff1461020e578063f9da3f7514610258578063ffed4ef6146102a2576100a9565b80631adc48af146100ae5780635192c82c146100cc5780635da70bb9146100ea57806363511db6146100f4578063705556531461013e575b600080fd5b6100b66102c0565b6040518082815260200191505060405180910390f35b6100d46103ee565b6040518082815260200191505060405180910390f35b6100f26103f4565b005b6100fc610928565b604051808273ffffffffffffffffffffffffffffffffffffffff1673ffffffffffffffffffffffffffffffffffffffff16815260200191505060405180910390f35b61014661094e565b6040518082815260200191505060405180910390f35b610164610954565b604051808273ffffffffffffffffffffffffffffffffffffffff1673ffffffffffffffffffffffffffffffffffffffff16815260200191505060405180910390f35b6101ae610979565b604051808273ffffffffffffffffffffffffffffffffffffffff1673ffffffffffffffffffffffffffffffffffffffff16815260200191505060405180910390f35b6101f861099f565b6040518082815260200191505060405180910390f35b6102166109a5565b604051808273ffffffffffffffffffffffffffffffffffffffff1673ffffffffffffffffffffffffffffffffffffffff16815260200191505060405180910390f35b6102606109bd565b604051808273ffffffffffffffffffffffffffffffffffffffff1673ffffffffffffffffffffffffffffffffffffffff16815260200191505060405180910390f35b6102aa6109e3565b6040518082815260200191505060405180910390f35b60008073ea3cb156745a8d281a5fc174186c976f2dd04c2e73ffffffffffffffffffffffffffffffffffffffff166370a08231306040518263ffffffff1660e01b8152600401808273ffffffffffffffffffffffffffffffffffffffff1673ffffffffffffffffffffffffffffffffffffffff16815260200191505060206040518083038186803b15801561035457600080fd5b505afa158015610368573d6000803e3d6000fd5b505050506040513d602081101561037e57600080fd5b8101908080519060200190929190505050905060008111156103e55760006103b1612710836109e990919063ffffffff16565b905060008111156103da576103d160075482610a3390919063ffffffff16565b925050506103eb565b6000925050506103eb565b60009150505b90565b60015481565b600073ea3cb156745a8d281a5fc174186c976f2dd04c2e73ffffffffffffffffffffffffffffffffffffffff166370a08231306040518263ffffffff1660e01b8152600401808273ffffffffffffffffffffffffffffffffffffffff1673ffffffffffffffffffffffffffffffffffffffff16815260200191505060206040518083038186803b15801561048757600080fd5b505afa15801561049b573d6000803e3d6000fd5b505050506040513d60208110156104b157600080fd5b8101908080519060200190929190505050905060008111156109255760006104e4612710836109e990919063ffffffff16565b905060008111156109235773ea3cb156745a8d281a5fc174186c976f2dd04c2e73ffffffffffffffffffffffffffffffffffffffff1663a9059cbb6000809054906101000a900473ffffffffffffffffffffffffffffffffffffffff1661055660015485610a3390919063ffffffff16565b6040518363ffffffff1660e01b8152600401808373ffffffffffffffffffffffffffffffffffffffff1673ffffffffffffffffffffffffffffffffffffffff16815260200182815260200192505050602060405180830381600087803b1580156105bf57600080fd5b505af11580156105d3573d6000803e3d6000fd5b505050506040513d60208110156105e957600080fd5b81019080805190602001909291905050505073ea3cb156745a8d281a5fc174186c976f2dd04c2e73ffffffffffffffffffffffffffffffffffffffff1663a9059cbb600260009054906101000a900473ffffffffffffffffffffffffffffffffffffffff1661066360035485610a3390919063ffffffff16565b6040518363ffffffff1660e01b8152600401808373ffffffffffffffffffffffffffffffffffffffff1673ffffffffffffffffffffffffffffffffffffffff16815260200182815260200192505050602060405180830381600087803b1580156106cc57600080fd5b505af11580156106e0573d6000803e3d6000fd5b505050506040513d60208110156106f657600080fd5b81019080805190602001909291905050505073ea3cb156745a8d281a5fc174186c976f2dd04c2e73ffffffffffffffffffffffffffffffffffffffff1663a9059cbb600460009054906101000a900473ffffffffffffffffffffffffffffffffffffffff1661077060055485610a3390919063ffffffff16565b6040518363ffffffff1660e01b8152600401808373ffffffffffffffffffffffffffffffffffffffff1673ffffffffffffffffffffffffffffffffffffffff16815260200182815260200192505050602060405180830381600087803b1580156107d957600080fd5b505af11580156107ed573d6000803e3d6000fd5b505050506040513d602081101561080357600080fd5b81019080805190602001909291905050505073ea3cb156745a8d281a5fc174186c976f2dd04c2e73ffffffffffffffffffffffffffffffffffffffff1663a9059cbb600660009054906101000a900473ffffffffffffffffffffffffffffffffffffffff1661087d60075485610a3390919063ffffffff16565b6040518363ffffffff1660e01b8152600401808373ffffffffffffffffffffffffffffffffffffffff1673ffffffffffffffffffffffffffffffffffffffff16815260200182815260200192505050602060405180830381600087803b1580156108e657600080fd5b505af11580156108fa573d6000803e3d6000fd5b505050506040513d602081101561091057600080fd5b8101908080519060200190929190505050505b505b50565b600260009054906101000a900473ffffffffffffffffffffffffffffffffffffffff1681565b60075481565b6000809054906101000a900473ffffffffffffffffffffffffffffffffffffffff1681565b600460009054906101000a900473ffffffffffffffffffffffffffffffffffffffff1681565b60035481565b73ea3cb156745a8d281a5fc174186c976f2dd04c2e81565b600660009054906101000a900473ffffffffffffffffffffffffffffffffffffffff1681565b60055481565b6000610a2b83836040518060400160405280601a81526020017f536166654d6174683a206469766973696f6e206279207a65726f000000000000815250610ab9565b905092915050565b600080831415610a465760009050610ab3565b6000828402905082848281610a5757fe5b0414610aae576040517f08c379a0000000000000000000000000000000000000000000000000000000008152600401808060200182810382526021815260200180610b806021913960400191505060405180910390fd5b809150505b92915050565b60008083118290610b65576040517f08c379a00000000000000000000000000000000000000000000000000000000081526004018080602001828103825283818151815260200191508051906020019080838360005b83811015610b2a578082015181840152602081019050610b0f565b50505050905090810190601f168015610b575780820380516001836020036101000a031916815260200191505b509250505060405180910390fd5b506000838581610b7157fe5b04905080915050939250505056fe536166654d6174683a206d756c7469706c69636174696f6e206f766572666c6f77a2646970667358221220b0dd0335ba830e73626009509c2d29db1369a378c1b8a390a3f3899ec40a27e664736f6c63430006020033",
  "source": "// Brain Fee Distributor\n// https://nobrainer.finance/\n// SPDX-License-Identifier: MIT\npragma solidity ^0.6.2;\n\nimport \"@openzeppelin/contracts/math/SafeMath.sol\";\n\ninterface BRAIN {\n  function balanceOf(address account) external view returns (uint256);\n  function transfer(address recipient, uint256 amount) external returns (bool);\n}\n\ncontract FeeDistributor {\n  using SafeMath for uint256;\n  address constant public brainAddress = 0xEA3cB156745a8d281A5fC174186C976F2dD04c2E;\n\n  // Fees ratio out of 10,000. Ratio must add up to 10,000\n\n  address public burnAddress = address(1);\n  uint256 public burnRatio = 500;\n\n  address public devAddress1 = 0x08d19746Ee0c0833FC5EAF98181eB91DAEEb9abB;\n  uint256 public devRatio1 = 500;\n  \n  address public devAddress2 = 0xB03832FE8f62b27F5e278F0eEe65b5Ace875D984;\n  uint256 public devRatio2 = 500;\n\n  address public farmAddress; // To Be Set\n  uint256 public farmRatio = 8500;\n\n  function pendingFarmAmount() public view returns (uint256) {\n    uint256 balance = BRAIN(brainAddress).balanceOf(address(this));\n    if (balance > 0) {\n      uint256 fraction = balance.div(10000);\n      if (fraction > 0) {\n        return fraction.mul(farmRatio);\n      } else {\n        return 0;\n      }\n    } else {\n      return 0;\n    }\n  }\n\n  function processTransfer() public {\n    uint256 balance = BRAIN(brainAddress).balanceOf(address(this));\n    if (balance > 0) {\n      uint256 fraction = balance.div(10000);\n      if (fraction > 0) {\n        BRAIN(brainAddress).transfer(burnAddress, fraction.mul(burnRatio));\n        BRAIN(brainAddress).transfer(devAddress1, fraction.mul(devRatio1));\n        BRAIN(brainAddress).transfer(devAddress2, fraction.mul(devRatio2));\n        BRAIN(brainAddress).transfer(farmAddress, fraction.mul(farmRatio));\n      }\n    }\n  }\n}\n\n\n",
  "sourcePath": "/home/jimmy/DecentralisedTech/projects/work/NoBrainer.Finance/Contracts/contracts/FeeDistributor.sol",
  "compiler": {
    "name": "solc",
    "version": "0.6.2+commit.bacdbe57.Emscripten.clang"
  },
  "schemaVersion": "3.2.4",
  "updatedAt": "2020-10-07T01:06:19.798Z",
  "devdoc": {
    "methods": {}
  },
  "userdoc": {
    "methods": {}
  }
}