{
  "contractName": "LockedLPFarm",
  "abi": [
    {
      "anonymous": false,
      "inputs": [
        {
          "indexed": false,
          "internalType": "address",
          "name": "to",
          "type": "address"
        },
        {
          "indexed": false,
          "internalType": "uint256",
          "name": "amount",
          "type": "uint256"
        }
      ],
      "name": "DividendWithdrawn",
      "type": "event"
    },
    {
      "anonymous": false,
      "inputs": [
        {
          "indexed": false,
          "internalType": "uint256",
          "name": "amount",
          "type": "uint256"
        }
      ],
      "name": "DividendsDistributed",
      "type": "event"
    },
    {
      "anonymous": false,
      "inputs": [
        {
          "indexed": true,
          "internalType": "address",
          "name": "previousOwner",
          "type": "address"
        },
        {
          "indexed": true,
          "internalType": "address",
          "name": "newOwner",
          "type": "address"
        }
      ],
      "name": "OwnershipTransferred",
      "type": "event"
    },
    {
      "anonymous": false,
      "inputs": [
        {
          "indexed": true,
          "internalType": "address",
          "name": "user",
          "type": "address"
        },
        {
          "indexed": false,
          "internalType": "uint256",
          "name": "amount",
          "type": "uint256"
        }
      ],
      "name": "Staked",
      "type": "event"
    },
    {
      "anonymous": false,
      "inputs": [
        {
          "indexed": true,
          "internalType": "address",
          "name": "user",
          "type": "address"
        },
        {
          "indexed": false,
          "internalType": "uint256",
          "name": "amount",
          "type": "uint256"
        }
      ],
      "name": "Withdrawn",
      "type": "event"
    },
    {
      "inputs": [],
      "name": "BrainAddress",
      "outputs": [
        {
          "internalType": "address",
          "name": "",
          "type": "address"
        }
      ],
      "stateMutability": "view",
      "type": "function"
    },
    {
      "inputs": [],
      "name": "Distributor",
      "outputs": [
        {
          "internalType": "address",
          "name": "",
          "type": "address"
        }
      ],
      "stateMutability": "view",
      "type": "function"
    },
    {
      "inputs": [],
      "name": "LPAddress",
      "outputs": [
        {
          "internalType": "address",
          "name": "",
          "type": "address"
        }
      ],
      "stateMutability": "view",
      "type": "function"
    },
    {
      "inputs": [],
      "name": "LootboxAddress",
      "outputs": [
        {
          "internalType": "address",
          "name": "",
          "type": "address"
        }
      ],
      "stateMutability": "view",
      "type": "function"
    },
    {
      "inputs": [
        {
          "internalType": "address",
          "name": "",
          "type": "address"
        }
      ],
      "name": "lastUpdateTime",
      "outputs": [
        {
          "internalType": "uint256",
          "name": "",
          "type": "uint256"
        }
      ],
      "stateMutability": "view",
      "type": "function"
    },
    {
      "inputs": [],
      "name": "owner",
      "outputs": [
        {
          "internalType": "address",
          "name": "",
          "type": "address"
        }
      ],
      "stateMutability": "view",
      "type": "function"
    },
    {
      "inputs": [
        {
          "internalType": "address",
          "name": "",
          "type": "address"
        }
      ],
      "name": "points",
      "outputs": [
        {
          "internalType": "uint256",
          "name": "",
          "type": "uint256"
        }
      ],
      "stateMutability": "view",
      "type": "function"
    },
    {
      "inputs": [],
      "name": "renounceOwnership",
      "outputs": [],
      "stateMutability": "nonpayable",
      "type": "function"
    },
    {
      "inputs": [
        {
          "internalType": "address",
          "name": "newOwner",
          "type": "address"
        }
      ],
      "name": "transferOwnership",
      "outputs": [],
      "stateMutability": "nonpayable",
      "type": "function"
    },
    {
      "inputs": [
        {
          "internalType": "address",
          "name": "account",
          "type": "address"
        }
      ],
      "name": "balanceOf",
      "outputs": [
        {
          "internalType": "uint256",
          "name": "",
          "type": "uint256"
        }
      ],
      "stateMutability": "view",
      "type": "function"
    },
    {
      "inputs": [
        {
          "internalType": "address",
          "name": "account",
          "type": "address"
        }
      ],
      "name": "earned",
      "outputs": [
        {
          "internalType": "uint256",
          "name": "",
          "type": "uint256"
        }
      ],
      "stateMutability": "view",
      "type": "function"
    },
    {
      "inputs": [
        {
          "internalType": "uint256",
          "name": "amount",
          "type": "uint256"
        }
      ],
      "name": "stake",
      "outputs": [],
      "stateMutability": "nonpayable",
      "type": "function"
    },
    {
      "inputs": [
        {
          "internalType": "uint256",
          "name": "amount",
          "type": "uint256"
        }
      ],
      "name": "withdraw",
      "outputs": [],
      "stateMutability": "nonpayable",
      "type": "function"
    },
    {
      "inputs": [],
      "name": "exit",
      "outputs": [],
      "stateMutability": "nonpayable",
      "type": "function"
    },
    {
      "inputs": [
        {
          "internalType": "uint256",
          "name": "_lootbox",
          "type": "uint256"
        }
      ],
      "name": "redeem",
      "outputs": [],
      "stateMutability": "nonpayable",
      "type": "function"
    },
    {
      "inputs": [
        {
          "internalType": "address",
          "name": "_Distributor",
          "type": "address"
        }
      ],
      "name": "setDistributor",
      "outputs": [],
      "stateMutability": "nonpayable",
      "type": "function"
    },
    {
      "inputs": [],
      "name": "distributeDividends",
      "outputs": [],
      "stateMutability": "nonpayable",
      "type": "function"
    },
    {
      "inputs": [
        {
          "internalType": "address",
          "name": "_owner",
          "type": "address"
        }
      ],
      "name": "accumulativeDividendOf",
      "outputs": [
        {
          "internalType": "uint256",
          "name": "",
          "type": "uint256"
        }
      ],
      "stateMutability": "view",
      "type": "function"
    },
    {
      "inputs": [
        {
          "internalType": "address",
          "name": "_owner",
          "type": "address"
        }
      ],
      "name": "withdrawableDividendOf",
      "outputs": [
        {
          "internalType": "uint256",
          "name": "",
          "type": "uint256"
        }
      ],
      "stateMutability": "view",
      "type": "function"
    },
    {
      "inputs": [],
      "name": "withdrawDividend",
      "outputs": [],
      "stateMutability": "nonpayable",
      "type": "function"
    }
  ],
  "bytecode": "0x608060405273ea3cb156745a8d281a5fc174186c976f2dd04c2e600260006101000a81548173ffffffffffffffffffffffffffffffffffffffff021916908373ffffffffffffffffffffffffffffffffffffffff160217905550600061006961010c60201b60201c565b9050806000806101000a81548173ffffffffffffffffffffffffffffffffffffffff021916908373ffffffffffffffffffffffffffffffffffffffff1602179055508073ffffffffffffffffffffffffffffffffffffffff16600073ffffffffffffffffffffffffffffffffffffffff167f8be0079c531659141344cd1fd0a4f28419497f9722a3daafe3b4186f6b6457e060405160405180910390a350610114565b600033905090565b6122b5806101236000396000f3fe608060405234801561001057600080fd5b506004361061012b5760003560e01c806370a08231116100ad578063a694fc3a11610071578063a694fc3a146104ea578063a8b9d24014610518578063db006a7514610570578063e9fad8ee1461059e578063f2fde38b146105a85761012b565b806370a08231146103b0578063715018a61461040857806375619ab5146104125780638da5cb5b1461045657806395cb1fb4146104a05761012b565b806327ce0147116100f457806327ce0147146102705780632ce9aead146102c85780632e1a7d4d14610320578063358b81661461034e5780636a474002146103a65761012b565b80628cc26214610130578063010ecfae1461018857806303c83302146101d2578063120f2eda146101dc5780632039d89014610226575b600080fd5b6101726004803603602081101561014657600080fd5b81019080803573ffffffffffffffffffffffffffffffffffffffff1690602001909291905050506105ec565b6040518082815260200191505060405180910390f35b610190610714565b604051808273ffffffffffffffffffffffffffffffffffffffff1673ffffffffffffffffffffffffffffffffffffffff16815260200191505060405180910390f35b6101da61073a565b005b6101e46108d5565b604051808273ffffffffffffffffffffffffffffffffffffffff1673ffffffffffffffffffffffffffffffffffffffff16815260200191505060405180910390f35b61022e6108fb565b604051808273ffffffffffffffffffffffffffffffffffffffff1673ffffffffffffffffffffffffffffffffffffffff16815260200191505060405180910390f35b6102b26004803603602081101561028657600080fd5b81019080803573ffffffffffffffffffffffffffffffffffffffff169060200190929190505050610921565b6040518082815260200191505060405180910390f35b61030a600480360360208110156102de57600080fd5b81019080803573ffffffffffffffffffffffffffffffffffffffff1690602001909291905050506109c2565b6040518082815260200191505060405180910390f35b61034c6004803603602081101561033657600080fd5b81019080803590602001909291905050506109da565b005b6103906004803603602081101561036457600080fd5b81019080803573ffffffffffffffffffffffffffffffffffffffff169060200190929190505050610e17565b6040518082815260200191505060405180910390f35b6103ae610e2f565b005b6103f2600480360360208110156103c657600080fd5b81019080803573ffffffffffffffffffffffffffffffffffffffff169060200190929190505050611051565b6040518082815260200191505060405180910390f35b61041061109a565b005b6104546004803603602081101561042857600080fd5b81019080803573ffffffffffffffffffffffffffffffffffffffff169060200190929190505050611222565b005b61045e61132f565b604051808273ffffffffffffffffffffffffffffffffffffffff1673ffffffffffffffffffffffffffffffffffffffff16815260200191505060405180910390f35b6104a8611358565b604051808273ffffffffffffffffffffffffffffffffffffffff1673ffffffffffffffffffffffffffffffffffffffff16815260200191505060405180910390f35b6105166004803603602081101561050057600080fd5b810190808035906020019092919050505061137e565b005b61055a6004803603602081101561052e57600080fd5b81019080803573ffffffffffffffffffffffffffffffffffffffff169060200190929190505050611791565b6040518082815260200191505060405180910390f35b61059c6004803603602081101561058657600080fd5b81019080803590602001909291905050506117f4565b005b6105a6611bea565b005b6105ea600480360360208110156105be57600080fd5b81019080803573ffffffffffffffffffffffffffffffffffffffff169060200190929190505050611bfd565b005b60008042905061070c6106be61062f670de0b6b3a76400006106216161a861061389611051565b611e0a90919063ffffffff16565b611e9090919063ffffffff16565b6106b0620151806106a2670de0b6b3a7640000610694600560008c73ffffffffffffffffffffffffffffffffffffffff1673ffffffffffffffffffffffffffffffffffffffff1681526020019081526020016000205489611eda90919063ffffffff16565b611e0a90919063ffffffff16565b611e9090919063ffffffff16565b611e0a90919063ffffffff16565b600660008673ffffffffffffffffffffffffffffffffffffffff1673ffffffffffffffffffffffffffffffffffffffff16815260200190815260200160002054611f2490919063ffffffff16565b915050919050565b600360009054906101000a900473ffffffffffffffffffffffffffffffffffffffff1681565b6000600260009054906101000a900473ffffffffffffffffffffffffffffffffffffffff1673ffffffffffffffffffffffffffffffffffffffff166370a08231306040518263ffffffff1660e01b8152600401808273ffffffffffffffffffffffffffffffffffffffff1673ffffffffffffffffffffffffffffffffffffffff16815260200191505060206040518083038186803b1580156107db57600080fd5b505afa1580156107ef573d6000803e3d6000fd5b505050506040513d602081101561080557600080fd5b81019080805190602001909291905050509050600060075411801561082b5750600c5481115b156108d2576000610847600c5483611eda90919063ffffffff16565b905080600c8190555061089360075461087a70010000000000000000000000000000000084611e0a90919063ffffffff16565b8161088157fe5b04600954611f2490919063ffffffff16565b6009819055507f051019b59d3b24249903e46fd05b6def7f293fc3de54eca64b3d32743f27fc8e816040518082815260200191505060405180910390a1505b50565b600160009054906101000a900473ffffffffffffffffffffffffffffffffffffffff1681565b600860009054906101000a900473ffffffffffffffffffffffffffffffffffffffff1681565b60007001000000000000000000000000000000006109b36109ae600a60008673ffffffffffffffffffffffffffffffffffffffff1673ffffffffffffffffffffffffffffffffffffffff168152602001908152602001600020546109a061099b61098a88611051565b600954611e0a90919063ffffffff16565b611fac565b611fc990919063ffffffff16565b61200b565b816109ba57fe5b049050919050565b60056020528060005260406000206000915090505481565b33600073ffffffffffffffffffffffffffffffffffffffff168173ffffffffffffffffffffffffffffffffffffffff1614610aa057610a18816105ec565b600660008373ffffffffffffffffffffffffffffffffffffffff1673ffffffffffffffffffffffffffffffffffffffff1681526020019081526020016000208190555042600560008373ffffffffffffffffffffffffffffffffffffffff1673ffffffffffffffffffffffffffffffffffffffff168152602001908152602001600020819055505b60008211610b16576040517f08c379a00000000000000000000000000000000000000000000000000000000081526004018080602001828103825260118152602001807f43616e6e6f74207769746864726177203000000000000000000000000000000081525060200191505060405180910390fd5b610b1f33611051565b821115610b77576040517f08c379a00000000000000000000000000000000000000000000000000000000081526004018080602001828103825260218152602001806122186021913960400191505060405180910390fd5b600160009054906101000a900473ffffffffffffffffffffffffffffffffffffffff1673ffffffffffffffffffffffffffffffffffffffff1663a9059cbb33846040518363ffffffff1660e01b8152600401808373ffffffffffffffffffffffffffffffffffffffff1673ffffffffffffffffffffffffffffffffffffffff16815260200182815260200192505050602060405180830381600087803b158015610c2057600080fd5b505af1158015610c34573d6000803e3d6000fd5b505050506040513d6020811015610c4a57600080fd5b810190808051906020019092919050505050610c7182600754611eda90919063ffffffff16565b600781905550610c7f61073a565b610ced610c9f610c9a84600954611e0a90919063ffffffff16565b611fac565b600a60003373ffffffffffffffffffffffffffffffffffffffff1673ffffffffffffffffffffffffffffffffffffffff16815260200190815260200160002054611fc990919063ffffffff16565b600a60003373ffffffffffffffffffffffffffffffffffffffff1673ffffffffffffffffffffffffffffffffffffffff16815260200190815260200160002081905550610d8282600460003373ffffffffffffffffffffffffffffffffffffffff1673ffffffffffffffffffffffffffffffffffffffff16815260200190815260200160002054611eda90919063ffffffff16565b600460003373ffffffffffffffffffffffffffffffffffffffff1673ffffffffffffffffffffffffffffffffffffffff168152602001908152602001600020819055503373ffffffffffffffffffffffffffffffffffffffff167f7084f5476618d8e60b11ef0d7d3f06914655adb8793e28ff7f018d4c76d505d5836040518082815260200191505060405180910390a25050565b60066020528060005260406000206000915090505481565b610e3761073a565b6000610e4233611791565b9050600081111561104e57610e9f81600b60003373ffffffffffffffffffffffffffffffffffffffff1673ffffffffffffffffffffffffffffffffffffffff16815260200190815260200160002054611f2490919063ffffffff16565b600b60003373ffffffffffffffffffffffffffffffffffffffff1673ffffffffffffffffffffffffffffffffffffffff168152602001908152602001600020819055507fee503bee2bb6a87e57bc57db795f98137327401a0e7b7ce42e37926cc1a9ca4d3382604051808373ffffffffffffffffffffffffffffffffffffffff1673ffffffffffffffffffffffffffffffffffffffff1681526020018281526020019250505060405180910390a1600260009054906101000a900473ffffffffffffffffffffffffffffffffffffffff1673ffffffffffffffffffffffffffffffffffffffff1663a9059cbb33836040518363ffffffff1660e01b8152600401808373ffffffffffffffffffffffffffffffffffffffff1673ffffffffffffffffffffffffffffffffffffffff16815260200182815260200192505050602060405180830381600087803b158015610ff657600080fd5b505af115801561100a573d6000803e3d6000fd5b505050506040513d602081101561102057600080fd5b81019080805190602001909291905050505061104781600c54611eda90919063ffffffff16565b600c819055505b50565b6000600460008373ffffffffffffffffffffffffffffffffffffffff1673ffffffffffffffffffffffffffffffffffffffff168152602001908152602001600020549050919050565b6110a2612022565b73ffffffffffffffffffffffffffffffffffffffff166000809054906101000a900473ffffffffffffffffffffffffffffffffffffffff1673ffffffffffffffffffffffffffffffffffffffff1614611163576040517f08c379a00000000000000000000000000000000000000000000000000000000081526004018080602001828103825260208152602001807f4f776e61626c653a2063616c6c6572206973206e6f7420746865206f776e657281525060200191505060405180910390fd5b600073ffffffffffffffffffffffffffffffffffffffff166000809054906101000a900473ffffffffffffffffffffffffffffffffffffffff1673ffffffffffffffffffffffffffffffffffffffff167f8be0079c531659141344cd1fd0a4f28419497f9722a3daafe3b4186f6b6457e060405160405180910390a360008060006101000a81548173ffffffffffffffffffffffffffffffffffffffff021916908373ffffffffffffffffffffffffffffffffffffffff160217905550565b61122a612022565b73ffffffffffffffffffffffffffffffffffffffff166000809054906101000a900473ffffffffffffffffffffffffffffffffffffffff1673ffffffffffffffffffffffffffffffffffffffff16146112eb576040517f08c379a00000000000000000000000000000000000000000000000000000000081526004018080602001828103825260208152602001807f4f776e61626c653a2063616c6c6572206973206e6f7420746865206f776e657281525060200191505060405180910390fd5b80600860006101000a81548173ffffffffffffffffffffffffffffffffffffffff021916908373ffffffffffffffffffffffffffffffffffffffff16021790555050565b60008060009054906101000a900473ffffffffffffffffffffffffffffffffffffffff16905090565b600260009054906101000a900473ffffffffffffffffffffffffffffffffffffffff1681565b33600073ffffffffffffffffffffffffffffffffffffffff168173ffffffffffffffffffffffffffffffffffffffff1614611444576113bc816105ec565b600660008373ffffffffffffffffffffffffffffffffffffffff1673ffffffffffffffffffffffffffffffffffffffff1681526020019081526020016000208190555042600560008373ffffffffffffffffffffffffffffffffffffffff1673ffffffffffffffffffffffffffffffffffffffff168152602001908152602001600020819055505b65b5e620f4800061146661145733611051565b84611f2490919063ffffffff16565b11156114bd576040517f08c379a00000000000000000000000000000000000000000000000000000000081526004018080602001828103825260278152602001806121f16027913960400191505060405180910390fd5b600160009054906101000a900473ffffffffffffffffffffffffffffffffffffffff1673ffffffffffffffffffffffffffffffffffffffff166323b872dd3330856040518463ffffffff1660e01b8152600401808473ffffffffffffffffffffffffffffffffffffffff1673ffffffffffffffffffffffffffffffffffffffff1681526020018373ffffffffffffffffffffffffffffffffffffffff1673ffffffffffffffffffffffffffffffffffffffff1681526020018281526020019350505050602060405180830381600087803b15801561159a57600080fd5b505af11580156115ae573d6000803e3d6000fd5b505050506040513d60208110156115c457600080fd5b8101908080519060200190929190505050506115eb82600754611f2490919063ffffffff16565b6007819055506115f961073a565b61166761161961161484600954611e0a90919063ffffffff16565b611fac565b600a60003373ffffffffffffffffffffffffffffffffffffffff1673ffffffffffffffffffffffffffffffffffffffff1681526020019081526020016000205461202a90919063ffffffff16565b600a60003373ffffffffffffffffffffffffffffffffffffffff1673ffffffffffffffffffffffffffffffffffffffff168152602001908152602001600020819055506116fc82600460003373ffffffffffffffffffffffffffffffffffffffff1673ffffffffffffffffffffffffffffffffffffffff16815260200190815260200160002054611f2490919063ffffffff16565b600460003373ffffffffffffffffffffffffffffffffffffffff1673ffffffffffffffffffffffffffffffffffffffff168152602001908152602001600020819055503373ffffffffffffffffffffffffffffffffffffffff167f9e71bc8eea02a63969f509818f2dafb9254532904319f9dbda79b67bd34a5f3d836040518082815260200191505060405180910390a25050565b60006117ed600b60008473ffffffffffffffffffffffffffffffffffffffff1673ffffffffffffffffffffffffffffffffffffffff168152602001908152602001600020546117df84610921565b611eda90919063ffffffff16565b9050919050565b33600073ffffffffffffffffffffffffffffffffffffffff168173ffffffffffffffffffffffffffffffffffffffff16146118ba57611832816105ec565b600660008373ffffffffffffffffffffffffffffffffffffffff1673ffffffffffffffffffffffffffffffffffffffff1681526020019081526020016000208190555042600560008373ffffffffffffffffffffffffffffffffffffffff1673ffffffffffffffffffffffffffffffffffffffff168152602001908152602001600020819055505b6118c261073a565b6000600360009054906101000a900473ffffffffffffffffffffffffffffffffffffffff1673ffffffffffffffffffffffffffffffffffffffff1663e7572230846040518263ffffffff1660e01b81526004018082815260200191505060206040518083038186803b15801561193757600080fd5b505afa15801561194b573d6000803e3d6000fd5b505050506040513d602081101561196157600080fd5b81019080805190602001909291905050509050600081116119ea576040517f08c379a000000000000000000000000000000000000000000000000000000000815260040180806020018281038252600e8152602001807f4c6f6f74206e6f7420666f756e6400000000000000000000000000000000000081525060200191505060405180910390fd5b80600660003373ffffffffffffffffffffffffffffffffffffffff1673ffffffffffffffffffffffffffffffffffffffff168152602001908152602001600020541015611a9f576040517f08c379a000000000000000000000000000000000000000000000000000000000815260040180806020018281038252601b8152602001807f4e6f7420656e6f75676820706f696e747320746f2072656465656d000000000081525060200191505060405180910390fd5b600360009054906101000a900473ffffffffffffffffffffffffffffffffffffffff1673ffffffffffffffffffffffffffffffffffffffff1663db006a75846040518263ffffffff1660e01b815260040180828152602001915050602060405180830381600087803b158015611b1457600080fd5b505af1158015611b28573d6000803e3d6000fd5b505050506040513d6020811015611b3e57600080fd5b810190808051906020019092919050505050611ba281600660003373ffffffffffffffffffffffffffffffffffffffff1673ffffffffffffffffffffffffffffffffffffffff16815260200190815260200160002054611eda90919063ffffffff16565b600660003373ffffffffffffffffffffffffffffffffffffffff1673ffffffffffffffffffffffffffffffffffffffff16815260200190815260200160002081905550505050565b611bfb611bf633611051565b6109da565b565b611c05612022565b73ffffffffffffffffffffffffffffffffffffffff166000809054906101000a900473ffffffffffffffffffffffffffffffffffffffff1673ffffffffffffffffffffffffffffffffffffffff1614611cc6576040517f08c379a00000000000000000000000000000000000000000000000000000000081526004018080602001828103825260208152602001807f4f776e61626c653a2063616c6c6572206973206e6f7420746865206f776e657281525060200191505060405180910390fd5b600073ffffffffffffffffffffffffffffffffffffffff168173ffffffffffffffffffffffffffffffffffffffff161415611d4c576040517f08c379a00000000000000000000000000000000000000000000000000000000081526004018080602001828103825260268152602001806122396026913960400191505060405180910390fd5b8073ffffffffffffffffffffffffffffffffffffffff166000809054906101000a900473ffffffffffffffffffffffffffffffffffffffff1673ffffffffffffffffffffffffffffffffffffffff167f8be0079c531659141344cd1fd0a4f28419497f9722a3daafe3b4186f6b6457e060405160405180910390a3806000806101000a81548173ffffffffffffffffffffffffffffffffffffffff021916908373ffffffffffffffffffffffffffffffffffffffff16021790555050565b600080831415611e1d5760009050611e8a565b6000828402905082848281611e2e57fe5b0414611e85576040517f08c379a000000000000000000000000000000000000000000000000000000000815260040180806020018281038252602181526020018061225f6021913960400191505060405180910390fd5b809150505b92915050565b6000611ed283836040518060400160405280601a81526020017f536166654d6174683a206469766973696f6e206279207a65726f00000000000081525061206a565b905092915050565b6000611f1c83836040518060400160405280601e81526020017f536166654d6174683a207375627472616374696f6e206f766572666c6f770000815250612130565b905092915050565b600080828401905083811015611fa2576040517f08c379a000000000000000000000000000000000000000000000000000000000815260040180806020018281038252601b8152602001807f536166654d6174683a206164646974696f6e206f766572666c6f77000000000081525060200191505060405180910390fd5b8091505092915050565b6000808290506000811215611fc057600080fd5b80915050919050565b600080828401905060008312158015611fe25750838112155b80611ff85750600083128015611ff757508381125b5b61200157600080fd5b8091505092915050565b60008082121561201a57600080fd5b819050919050565b600033905090565b600080821215801561203e57508282840313155b806120565750600082128015612055575082828403135b5b61205f57600080fd5b818303905092915050565b60008083118290612116576040517f08c379a00000000000000000000000000000000000000000000000000000000081526004018080602001828103825283818151815260200191508051906020019080838360005b838110156120db5780820151818401526020810190506120c0565b50505050905090810190601f1680156121085780820380516001836020036101000a031916815260200191505b509250505060405180910390fd5b50600083858161212257fe5b049050809150509392505050565b60008383111582906121dd576040517f08c379a00000000000000000000000000000000000000000000000000000000081526004018080602001828103825283818151815260200191508051906020019080838360005b838110156121a2578082015181840152602081019050612187565b50505050905090810190601f1680156121cf5780820380516001836020036101000a031916815260200191505b509250505060405180910390fd5b506000838503905080915050939250505056fe43616e6e6f74207374616b65206d6f7265207468616e20302e30303032204c6f636b6564204c5043616e6e6f74207769746864726177206d6f7265207468616e2062616c616e63654f776e61626c653a206e6577206f776e657220697320746865207a65726f2061646472657373536166654d6174683a206d756c7469706c69636174696f6e206f766572666c6f77a264697066735822122041bd8919631797b1e6df533004e302c5e7251b89738a254246fca6629f47305964736f6c63430006020033",
  "source": "pragma solidity ^0.6.2;\n\nimport \"@openzeppelin/contracts/math/SafeMath.sol\";\nimport \"@openzeppelin/contracts/access/Ownable.sol\";\nimport \"@openzeppelin/contracts/token/ERC20/IERC20.sol\";\n\nlibrary SafeMathInt {\n  function mul(int256 a, int256 b) internal pure returns (int256) {\n  // Prevent overflow when multiplying INT256_MIN with -1\n  // https://github.com/RequestNetwork/requestNetwork/issues/43\n  require(!(a == - 2**255 && b == -1) && !(b == - 2**255 && a == -1));\n\n  int256 c = a * b;\n  require((b == 0) || (c / b == a));\n  return c;\n}\n\n  function div(int256 a, int256 b) internal pure returns (int256) {\n    // Prevent overflow when dividing INT256_MIN by -1\n    // https://github.com/RequestNetwork/requestNetwork/issues/43\n    require(!(a == - 2**255 && b == -1) && (b > 0));\n\n    return a / b;\n  }\n\n  function sub(int256 a, int256 b) internal pure returns (int256) {\n    require((b >= 0 && a - b <= a) || (b < 0 && a - b > a));\n\n    return a - b;\n  }\n\n  function add(int256 a, int256 b) internal pure returns (int256) {\n    int256 c = a + b;\n    require((b >= 0 && c >= a) || (b < 0 && c < a));\n    return c;\n  }\n\n  function toUint256Safe(int256 a) internal pure returns (uint256) {\n    require(a >= 0);\n    return uint256(a);\n  }\n}\n\nlibrary SafeMathUint {\n  function toInt256Safe(uint256 a) internal pure returns (int256) {\n    int256 b = int256(a);\n    require(b >= 0);\n    return b;\n  }\n}\n\ninterface IBrainLootbox {\n    function getPrice(uint256 _id) external view returns (uint256);\n    function redeem(uint256 id) external returns (uint256);\n}\n\ncontract LockedLPFarm is Ownable {\n    using SafeMath for uint256;\n    using SafeMathUint for uint256;\n    using SafeMathInt for int256;\n    \n    address public LPAddress;\n    address public BrainAddress = 0xEA3cB156745a8d281A5fC174186C976F2dD04c2E;\n    address public LootboxAddress;\n\n\tmapping(address => uint256) private lpBalance;\n\tmapping(address => uint256) public lastUpdateTime;\n\tmapping(address => uint256) public points;\n\n\tevent Staked(address indexed user, uint256 amount);\n\tevent Withdrawn(address indexed user, uint256 amount);\n\n\tmodifier updateReward(address account) {\n\t\tif (account != address(0)) {\n\t\t\tpoints[account] = earned(account);\n\t\t\tlastUpdateTime[account] = block.timestamp;\n\t\t}\n\t\t_;\n\t}\n\n    function balanceOf(address account) public view returns (uint256) {\n        return lpBalance[account];\n    }\n\n\n    function earned(address account) public view returns (uint256) {\n\t\tuint256 blockTime = block.timestamp;\n\t\treturn\n\t\t\tpoints[account].add(\n\t\t\t\tblockTime.sub(lastUpdateTime[account]).mul(1e18).div(86400).mul(\n\t\t\t\t\t(balanceOf(account).mul(25000)).div(1e18)\n\t\t\t\t)\n\t\t\t);\n\t}\n\n\tfunction stake(uint256 amount) public updateReward(msg.sender) {\n \t\trequire(amount.add(balanceOf(msg.sender)) <= 200000000000000, \"Cannot stake more than 0.0002 Locked LP\");\n \t    IERC20(LPAddress).transferFrom(msg.sender, address(this), amount);\n \t    totalSupply = totalSupply.add(amount);\n \t    distributeDividends();\n \t    magnifiedDividendCorrections[msg.sender] = magnifiedDividendCorrections[msg.sender].sub((magnifiedDividendPerShare.mul(amount)).toInt256Safe());\n        lpBalance[msg.sender] = lpBalance[msg.sender].add(amount);\n\t\temit Staked(msg.sender, amount);\n\t}\n\n\tfunction withdraw(uint256 amount) public updateReward(msg.sender) {\n\t\trequire(amount > 0, \"Cannot withdraw 0\");\n\t\trequire(amount <= balanceOf(msg.sender), \"Cannot withdraw more than balance\");\n\t\tIERC20(LPAddress).transfer(msg.sender, amount);\n\t\ttotalSupply = totalSupply.sub(amount);\n\t\tdistributeDividends();\n\t\tmagnifiedDividendCorrections[msg.sender] = magnifiedDividendCorrections[msg.sender].add((magnifiedDividendPerShare.mul(amount)).toInt256Safe());\n        lpBalance[msg.sender] = lpBalance[msg.sender].sub(amount);\n\t\temit Withdrawn(msg.sender, amount);\n\t}\n\n\tfunction exit() external {\n\t\twithdraw(balanceOf(msg.sender));\n\t}\n    \n\tfunction redeem(uint256 _lootbox) public updateReward(msg.sender) {\n\t    distributeDividends();\n\t    uint256 price = IBrainLootbox(LootboxAddress).getPrice(_lootbox);\n\t\trequire(price > 0, \"Loot not found\");\n\t\trequire(points[msg.sender] >= price, \"Not enough points to redeem\");\n\t\tIBrainLootbox(LootboxAddress).redeem(_lootbox);\n\t\tpoints[msg.sender] = points[msg.sender].sub(price);\n\t}\n\t\n\t// $BRAIN Dividends\n\t// Based off https://github.com/Roger-Wu/erc1726-dividend-paying-token\n\tevent DividendsDistributed(uint256 amount);\n\tevent DividendWithdrawn(address to, uint256 amount);\n\t\n\tuint256 private totalSupply;\n\taddress public Distributor;\n\t\n\tfunction setDistributor(address _Distributor) public onlyOwner {\n\t   Distributor = _Distributor;\n\t}\n\t\n\tuint256 constant internal magnitude = 2**128;\n    uint256 internal magnifiedDividendPerShare;\n    mapping(address => int256) internal magnifiedDividendCorrections;\n    mapping(address => uint256) internal withdrawnDividends;\n    \n    uint256 internal lastBrainBalance;\n    \n    function distributeDividends() public {\n        uint256 currentBrainBalance = IERC20(BrainAddress).balanceOf(address(this));\n        if (totalSupply > 0 && currentBrainBalance > lastBrainBalance) {\n            uint256 amount = currentBrainBalance.sub(lastBrainBalance);\n            lastBrainBalance = amount;\n            magnifiedDividendPerShare = magnifiedDividendPerShare.add(amount.mul(magnitude) / totalSupply);\n            emit DividendsDistributed(amount);\n        }\n    }\n    \n    function accumulativeDividendOf(address _owner) public view returns(uint256) {\n        return magnifiedDividendPerShare.mul(balanceOf(_owner)).toInt256Safe().add(magnifiedDividendCorrections[_owner]).toUint256Safe() / magnitude;\n    }\n    \n    function withdrawableDividendOf(address _owner) public view returns(uint256) {\n        return accumulativeDividendOf(_owner).sub(withdrawnDividends[_owner]);\n    }\n    \n    function withdrawDividend() public {\n        distributeDividends();\n        uint256 _withdrawableDividend = withdrawableDividendOf(msg.sender);\n        if (_withdrawableDividend > 0) {\n            withdrawnDividends[msg.sender] = withdrawnDividends[msg.sender].add(_withdrawableDividend);\n            emit DividendWithdrawn(msg.sender, _withdrawableDividend);\n            IERC20(BrainAddress).transfer(msg.sender, _withdrawableDividend);\n            lastBrainBalance = lastBrainBalance.sub(_withdrawableDividend);\n        }\n    }\n}\n",
  "sourcePath": "/home/jimmy/DecentralisedTech/projects/work/NoBrainer.Finance/Contracts/contracts/LockedLPFarm.sol",
  "compiler": {
    "name": "solc",
    "version": "0.6.2+commit.bacdbe57.Emscripten.clang"
  },
  "schemaVersion": "3.2.4",
  "updatedAt": "2020-10-06T23:46:26.449Z",
  "devdoc": {
    "methods": {
      "owner()": {
        "details": "Returns the address of the current owner."
      },
      "renounceOwnership()": {
        "details": "Leaves the contract without owner. It will not be possible to call `onlyOwner` functions anymore. Can only be called by the current owner.     * NOTE: Renouncing ownership will leave the contract without an owner, thereby removing any functionality that is only available to the owner."
      },
      "transferOwnership(address)": {
        "details": "Transfers ownership of the contract to a new account (`newOwner`). Can only be called by the current owner."
      }
    }
  },
  "userdoc": {
    "methods": {}
  }
}