{
  "contractName": "LockedLPFarm",
  "abi": [
    {
      "inputs": [
        {
          "internalType": "address",
          "name": "_brain",
          "type": "address"
        },
        {
          "internalType": "address",
          "name": "_lp",
          "type": "address"
        },
        {
          "internalType": "address",
          "name": "_distributor",
          "type": "address"
        }
      ],
      "stateMutability": "nonpayable",
      "type": "constructor"
    },
    {
      "anonymous": false,
      "inputs": [
        {
          "indexed": false,
          "internalType": "address",
          "name": "to",
          "type": "address"
        },
        {
          "indexed": false,
          "internalType": "uint256",
          "name": "amount",
          "type": "uint256"
        }
      ],
      "name": "DividendWithdrawn",
      "type": "event"
    },
    {
      "anonymous": false,
      "inputs": [
        {
          "indexed": false,
          "internalType": "uint256",
          "name": "amount",
          "type": "uint256"
        }
      ],
      "name": "DividendsDistributed",
      "type": "event"
    },
    {
      "anonymous": false,
      "inputs": [
        {
          "indexed": true,
          "internalType": "address",
          "name": "previousOwner",
          "type": "address"
        },
        {
          "indexed": true,
          "internalType": "address",
          "name": "newOwner",
          "type": "address"
        }
      ],
      "name": "OwnershipTransferred",
      "type": "event"
    },
    {
      "anonymous": false,
      "inputs": [
        {
          "indexed": true,
          "internalType": "address",
          "name": "user",
          "type": "address"
        },
        {
          "indexed": false,
          "internalType": "uint256",
          "name": "amount",
          "type": "uint256"
        }
      ],
      "name": "Staked",
      "type": "event"
    },
    {
      "anonymous": false,
      "inputs": [
        {
          "indexed": true,
          "internalType": "address",
          "name": "user",
          "type": "address"
        },
        {
          "indexed": false,
          "internalType": "uint256",
          "name": "amount",
          "type": "uint256"
        }
      ],
      "name": "Withdrawn",
      "type": "event"
    },
    {
      "inputs": [],
      "name": "BrainAddress",
      "outputs": [
        {
          "internalType": "address",
          "name": "",
          "type": "address"
        }
      ],
      "stateMutability": "view",
      "type": "function"
    },
    {
      "inputs": [],
      "name": "Distributor",
      "outputs": [
        {
          "internalType": "address",
          "name": "",
          "type": "address"
        }
      ],
      "stateMutability": "view",
      "type": "function"
    },
    {
      "inputs": [],
      "name": "DistributorAddress",
      "outputs": [
        {
          "internalType": "address",
          "name": "",
          "type": "address"
        }
      ],
      "stateMutability": "view",
      "type": "function"
    },
    {
      "inputs": [],
      "name": "LPAddress",
      "outputs": [
        {
          "internalType": "address",
          "name": "",
          "type": "address"
        }
      ],
      "stateMutability": "view",
      "type": "function"
    },
    {
      "inputs": [],
      "name": "LootboxAddress",
      "outputs": [
        {
          "internalType": "address",
          "name": "",
          "type": "address"
        }
      ],
      "stateMutability": "view",
      "type": "function"
    },
    {
      "inputs": [
        {
          "internalType": "address",
          "name": "",
          "type": "address"
        }
      ],
      "name": "lastUpdateTime",
      "outputs": [
        {
          "internalType": "uint256",
          "name": "",
          "type": "uint256"
        }
      ],
      "stateMutability": "view",
      "type": "function"
    },
    {
      "inputs": [],
      "name": "owner",
      "outputs": [
        {
          "internalType": "address",
          "name": "",
          "type": "address"
        }
      ],
      "stateMutability": "view",
      "type": "function"
    },
    {
      "inputs": [
        {
          "internalType": "address",
          "name": "",
          "type": "address"
        }
      ],
      "name": "points",
      "outputs": [
        {
          "internalType": "uint256",
          "name": "",
          "type": "uint256"
        }
      ],
      "stateMutability": "view",
      "type": "function"
    },
    {
      "inputs": [],
      "name": "renounceOwnership",
      "outputs": [],
      "stateMutability": "nonpayable",
      "type": "function"
    },
    {
      "inputs": [
        {
          "internalType": "address",
          "name": "newOwner",
          "type": "address"
        }
      ],
      "name": "transferOwnership",
      "outputs": [],
      "stateMutability": "nonpayable",
      "type": "function"
    },
    {
      "inputs": [
        {
          "internalType": "address",
          "name": "_address",
          "type": "address"
        }
      ],
      "name": "setLootboxAddress",
      "outputs": [],
      "stateMutability": "nonpayable",
      "type": "function"
    },
    {
      "inputs": [
        {
          "internalType": "address",
          "name": "_address",
          "type": "address"
        }
      ],
      "name": "setDistributorAddress",
      "outputs": [],
      "stateMutability": "nonpayable",
      "type": "function"
    },
    {
      "inputs": [
        {
          "internalType": "address",
          "name": "account",
          "type": "address"
        }
      ],
      "name": "balanceOf",
      "outputs": [
        {
          "internalType": "uint256",
          "name": "",
          "type": "uint256"
        }
      ],
      "stateMutability": "view",
      "type": "function"
    },
    {
      "inputs": [
        {
          "internalType": "address",
          "name": "account",
          "type": "address"
        }
      ],
      "name": "earned",
      "outputs": [
        {
          "internalType": "uint256",
          "name": "",
          "type": "uint256"
        }
      ],
      "stateMutability": "view",
      "type": "function"
    },
    {
      "inputs": [
        {
          "internalType": "uint256",
          "name": "amount",
          "type": "uint256"
        }
      ],
      "name": "stake",
      "outputs": [],
      "stateMutability": "nonpayable",
      "type": "function"
    },
    {
      "inputs": [
        {
          "internalType": "uint256",
          "name": "amount",
          "type": "uint256"
        }
      ],
      "name": "withdraw",
      "outputs": [],
      "stateMutability": "nonpayable",
      "type": "function"
    },
    {
      "inputs": [],
      "name": "exit",
      "outputs": [],
      "stateMutability": "nonpayable",
      "type": "function"
    },
    {
      "inputs": [
        {
          "internalType": "uint256",
          "name": "_lootbox",
          "type": "uint256"
        }
      ],
      "name": "redeem",
      "outputs": [],
      "stateMutability": "nonpayable",
      "type": "function"
    },
    {
      "inputs": [
        {
          "internalType": "address",
          "name": "_Distributor",
          "type": "address"
        }
      ],
      "name": "setDistributor",
      "outputs": [],
      "stateMutability": "nonpayable",
      "type": "function"
    },
    {
      "inputs": [],
      "name": "distributeDividends",
      "outputs": [],
      "stateMutability": "nonpayable",
      "type": "function"
    },
    {
      "inputs": [
        {
          "internalType": "address",
          "name": "_owner",
          "type": "address"
        }
      ],
      "name": "accumulativeDividendOf",
      "outputs": [
        {
          "internalType": "uint256",
          "name": "",
          "type": "uint256"
        }
      ],
      "stateMutability": "view",
      "type": "function"
    },
    {
      "inputs": [
        {
          "internalType": "address",
          "name": "_owner",
          "type": "address"
        }
      ],
      "name": "withdrawableDividendOf",
      "outputs": [
        {
          "internalType": "uint256",
          "name": "",
          "type": "uint256"
        }
      ],
      "stateMutability": "view",
      "type": "function"
    },
    {
      "inputs": [
        {
          "internalType": "address",
          "name": "_owner",
          "type": "address"
        }
      ],
      "name": "pendingDividendsOf",
      "outputs": [
        {
          "internalType": "uint256",
          "name": "",
          "type": "uint256"
        }
      ],
      "stateMutability": "view",
      "type": "function"
    },
    {
      "inputs": [],
      "name": "withdrawDividend",
      "outputs": [],
      "stateMutability": "nonpayable",
      "type": "function"
    }
  ],
  "bytecode": "0x608060405234801561001057600080fd5b5060405162002a1b38038062002a1b8339818101604052606081101561003557600080fd5b81019080805190602001909291908051906020019092919080519060200190929190505050600061006a6101d360201b60201c565b9050806000806101000a81548173ffffffffffffffffffffffffffffffffffffffff021916908373ffffffffffffffffffffffffffffffffffffffff1602179055508073ffffffffffffffffffffffffffffffffffffffff16600073ffffffffffffffffffffffffffffffffffffffff167f8be0079c531659141344cd1fd0a4f28419497f9722a3daafe3b4186f6b6457e060405160405180910390a35081600160006101000a81548173ffffffffffffffffffffffffffffffffffffffff021916908373ffffffffffffffffffffffffffffffffffffffff16021790555080600260006101000a81548173ffffffffffffffffffffffffffffffffffffffff021916908373ffffffffffffffffffffffffffffffffffffffff16021790555082600360006101000a81548173ffffffffffffffffffffffffffffffffffffffff021916908373ffffffffffffffffffffffffffffffffffffffff1602179055505050506101db565b600033905090565b61283080620001eb6000396000f3fe608060405234801561001057600080fd5b50600436106101575760003560e01c8063715018a6116100c3578063a694fc3a1161007c578063a694fc3a146105f6578063a7fb40f714610624578063a8b9d2401461066e578063db006a75146106c6578063e9fad8ee146106f4578063f2fde38b146106fe57610157565b8063715018a61461047857806375619ab51461048257806379b48921146104c657806387950f491461051e5780638da5cb5b1461056257806395cb1fb4146105ac57610157565b80632ce9aead116101155780632ce9aead146102f45780632dd63f661461034c5780632e1a7d4d14610390578063358b8166146103be5780636a4740021461041657806370a082311461042057610157565b80628cc2621461015c578063010ecfae146101b457806303c83302146101fe578063120f2eda146102085780632039d8901461025257806327ce01471461029c575b600080fd5b61019e6004803603602081101561017257600080fd5b81019080803573ffffffffffffffffffffffffffffffffffffffff169060200190929190505050610742565b6040518082815260200191505060405180910390f35b6101bc61086a565b604051808273ffffffffffffffffffffffffffffffffffffffff1673ffffffffffffffffffffffffffffffffffffffff16815260200191505060405180910390f35b610206610890565b005b610210610a2b565b604051808273ffffffffffffffffffffffffffffffffffffffff1673ffffffffffffffffffffffffffffffffffffffff16815260200191505060405180910390f35b61025a610a51565b604051808273ffffffffffffffffffffffffffffffffffffffff1673ffffffffffffffffffffffffffffffffffffffff16815260200191505060405180910390f35b6102de600480360360208110156102b257600080fd5b81019080803573ffffffffffffffffffffffffffffffffffffffff169060200190929190505050610a77565b6040518082815260200191505060405180910390f35b6103366004803603602081101561030a57600080fd5b81019080803573ffffffffffffffffffffffffffffffffffffffff169060200190929190505050610b18565b6040518082815260200191505060405180910390f35b61038e6004803603602081101561036257600080fd5b81019080803573ffffffffffffffffffffffffffffffffffffffff169060200190929190505050610b30565b005b6103bc600480360360208110156103a657600080fd5b8101908080359060200190929190505050610c3d565b005b610400600480360360208110156103d457600080fd5b81019080803573ffffffffffffffffffffffffffffffffffffffff16906020019092919050505061107a565b6040518082815260200191505060405180910390f35b61041e611092565b005b6104626004803603602081101561043657600080fd5b81019080803573ffffffffffffffffffffffffffffffffffffffff1690602001909291905050506112b4565b6040518082815260200191505060405180910390f35b6104806112fd565b005b6104c46004803603602081101561049857600080fd5b81019080803573ffffffffffffffffffffffffffffffffffffffff169060200190929190505050611485565b005b610508600480360360208110156104dc57600080fd5b81019080803573ffffffffffffffffffffffffffffffffffffffff169060200190929190505050611592565b6040518082815260200191505060405180910390f35b6105606004803603602081101561053457600080fd5b81019080803573ffffffffffffffffffffffffffffffffffffffff169060200190929190505050611777565b005b61056a611884565b604051808273ffffffffffffffffffffffffffffffffffffffff1673ffffffffffffffffffffffffffffffffffffffff16815260200191505060405180910390f35b6105b46118ad565b604051808273ffffffffffffffffffffffffffffffffffffffff1673ffffffffffffffffffffffffffffffffffffffff16815260200191505060405180910390f35b6106226004803603602081101561060c57600080fd5b81019080803590602001909291905050506118d3565b005b61062c611ce6565b604051808273ffffffffffffffffffffffffffffffffffffffff1673ffffffffffffffffffffffffffffffffffffffff16815260200191505060405180910390f35b6106b06004803603602081101561068457600080fd5b81019080803573ffffffffffffffffffffffffffffffffffffffff169060200190929190505050611d0c565b6040518082815260200191505060405180910390f35b6106f2600480360360208110156106dc57600080fd5b8101908080359060200190929190505050611d6f565b005b6106fc612165565b005b6107406004803603602081101561071457600080fd5b81019080803573ffffffffffffffffffffffffffffffffffffffff169060200190929190505050612178565b005b600080429050610862610814610785670de0b6b3a76400006107776161a8610769896112b4565b61238590919063ffffffff16565b61240b90919063ffffffff16565b610806620151806107f8670de0b6b3a76400006107ea600660008c73ffffffffffffffffffffffffffffffffffffffff1673ffffffffffffffffffffffffffffffffffffffff168152602001908152602001600020548961245590919063ffffffff16565b61238590919063ffffffff16565b61240b90919063ffffffff16565b61238590919063ffffffff16565b600760008673ffffffffffffffffffffffffffffffffffffffff1673ffffffffffffffffffffffffffffffffffffffff1681526020019081526020016000205461249f90919063ffffffff16565b915050919050565b600460009054906101000a900473ffffffffffffffffffffffffffffffffffffffff1681565b6000600360009054906101000a900473ffffffffffffffffffffffffffffffffffffffff1673ffffffffffffffffffffffffffffffffffffffff166370a08231306040518263ffffffff1660e01b8152600401808273ffffffffffffffffffffffffffffffffffffffff1673ffffffffffffffffffffffffffffffffffffffff16815260200191505060206040518083038186803b15801561093157600080fd5b505afa158015610945573d6000803e3d6000fd5b505050506040513d602081101561095b57600080fd5b8101908080519060200190929190505050905060006008541180156109815750600d5481115b15610a2857600061099d600d548361245590919063ffffffff16565b905080600d819055506109e96008546109d07001000000000000000000000000000000008461238590919063ffffffff16565b816109d757fe5b04600a5461249f90919063ffffffff16565b600a819055507f051019b59d3b24249903e46fd05b6def7f293fc3de54eca64b3d32743f27fc8e816040518082815260200191505060405180910390a1505b50565b600160009054906101000a900473ffffffffffffffffffffffffffffffffffffffff1681565b600960009054906101000a900473ffffffffffffffffffffffffffffffffffffffff1681565b6000700100000000000000000000000000000000610b09610b04600b60008673ffffffffffffffffffffffffffffffffffffffff1673ffffffffffffffffffffffffffffffffffffffff16815260200190815260200160002054610af6610af1610ae0886112b4565b600a5461238590919063ffffffff16565b612527565b61254490919063ffffffff16565b612586565b81610b1057fe5b049050919050565b60066020528060005260406000206000915090505481565b610b3861259d565b73ffffffffffffffffffffffffffffffffffffffff166000809054906101000a900473ffffffffffffffffffffffffffffffffffffffff1673ffffffffffffffffffffffffffffffffffffffff1614610bf9576040517f08c379a00000000000000000000000000000000000000000000000000000000081526004018080602001828103825260208152602001807f4f776e61626c653a2063616c6c6572206973206e6f7420746865206f776e657281525060200191505060405180910390fd5b80600460006101000a81548173ffffffffffffffffffffffffffffffffffffffff021916908373ffffffffffffffffffffffffffffffffffffffff16021790555050565b33600073ffffffffffffffffffffffffffffffffffffffff168173ffffffffffffffffffffffffffffffffffffffff1614610d0357610c7b81610742565b600760008373ffffffffffffffffffffffffffffffffffffffff1673ffffffffffffffffffffffffffffffffffffffff1681526020019081526020016000208190555042600660008373ffffffffffffffffffffffffffffffffffffffff1673ffffffffffffffffffffffffffffffffffffffff168152602001908152602001600020819055505b60008211610d79576040517f08c379a00000000000000000000000000000000000000000000000000000000081526004018080602001828103825260118152602001807f43616e6e6f74207769746864726177203000000000000000000000000000000081525060200191505060405180910390fd5b610d82336112b4565b821115610dda576040517f08c379a00000000000000000000000000000000000000000000000000000000081526004018080602001828103825260218152602001806127936021913960400191505060405180910390fd5b600160009054906101000a900473ffffffffffffffffffffffffffffffffffffffff1673ffffffffffffffffffffffffffffffffffffffff1663a9059cbb33846040518363ffffffff1660e01b8152600401808373ffffffffffffffffffffffffffffffffffffffff1673ffffffffffffffffffffffffffffffffffffffff16815260200182815260200192505050602060405180830381600087803b158015610e8357600080fd5b505af1158015610e97573d6000803e3d6000fd5b505050506040513d6020811015610ead57600080fd5b810190808051906020019092919050505050610ed48260085461245590919063ffffffff16565b600881905550610ee2610890565b610f50610f02610efd84600a5461238590919063ffffffff16565b612527565b600b60003373ffffffffffffffffffffffffffffffffffffffff1673ffffffffffffffffffffffffffffffffffffffff1681526020019081526020016000205461254490919063ffffffff16565b600b60003373ffffffffffffffffffffffffffffffffffffffff1673ffffffffffffffffffffffffffffffffffffffff16815260200190815260200160002081905550610fe582600560003373ffffffffffffffffffffffffffffffffffffffff1673ffffffffffffffffffffffffffffffffffffffff1681526020019081526020016000205461245590919063ffffffff16565b600560003373ffffffffffffffffffffffffffffffffffffffff1673ffffffffffffffffffffffffffffffffffffffff168152602001908152602001600020819055503373ffffffffffffffffffffffffffffffffffffffff167f7084f5476618d8e60b11ef0d7d3f06914655adb8793e28ff7f018d4c76d505d5836040518082815260200191505060405180910390a25050565b60076020528060005260406000206000915090505481565b61109a610890565b60006110a533611d0c565b905060008111156112b15761110281600c60003373ffffffffffffffffffffffffffffffffffffffff1673ffffffffffffffffffffffffffffffffffffffff1681526020019081526020016000205461249f90919063ffffffff16565b600c60003373ffffffffffffffffffffffffffffffffffffffff1673ffffffffffffffffffffffffffffffffffffffff168152602001908152602001600020819055507fee503bee2bb6a87e57bc57db795f98137327401a0e7b7ce42e37926cc1a9ca4d3382604051808373ffffffffffffffffffffffffffffffffffffffff1673ffffffffffffffffffffffffffffffffffffffff1681526020018281526020019250505060405180910390a1600360009054906101000a900473ffffffffffffffffffffffffffffffffffffffff1673ffffffffffffffffffffffffffffffffffffffff1663a9059cbb33836040518363ffffffff1660e01b8152600401808373ffffffffffffffffffffffffffffffffffffffff1673ffffffffffffffffffffffffffffffffffffffff16815260200182815260200192505050602060405180830381600087803b15801561125957600080fd5b505af115801561126d573d6000803e3d6000fd5b505050506040513d602081101561128357600080fd5b8101908080519060200190929190505050506112aa81600d5461245590919063ffffffff16565b600d819055505b50565b6000600560008373ffffffffffffffffffffffffffffffffffffffff1673ffffffffffffffffffffffffffffffffffffffff168152602001908152602001600020549050919050565b61130561259d565b73ffffffffffffffffffffffffffffffffffffffff166000809054906101000a900473ffffffffffffffffffffffffffffffffffffffff1673ffffffffffffffffffffffffffffffffffffffff16146113c6576040517f08c379a00000000000000000000000000000000000000000000000000000000081526004018080602001828103825260208152602001807f4f776e61626c653a2063616c6c6572206973206e6f7420746865206f776e657281525060200191505060405180910390fd5b600073ffffffffffffffffffffffffffffffffffffffff166000809054906101000a900473ffffffffffffffffffffffffffffffffffffffff1673ffffffffffffffffffffffffffffffffffffffff167f8be0079c531659141344cd1fd0a4f28419497f9722a3daafe3b4186f6b6457e060405160405180910390a360008060006101000a81548173ffffffffffffffffffffffffffffffffffffffff021916908373ffffffffffffffffffffffffffffffffffffffff160217905550565b61148d61259d565b73ffffffffffffffffffffffffffffffffffffffff166000809054906101000a900473ffffffffffffffffffffffffffffffffffffffff1673ffffffffffffffffffffffffffffffffffffffff161461154e576040517f08c379a00000000000000000000000000000000000000000000000000000000081526004018080602001828103825260208152602001807f4f776e61626c653a2063616c6c6572206973206e6f7420746865206f776e657281525060200191505060405180910390fd5b80600960006101000a81548173ffffffffffffffffffffffffffffffffffffffff021916908373ffffffffffffffffffffffffffffffffffffffff16021790555050565b600080600260009054906101000a900473ffffffffffffffffffffffffffffffffffffffff1673ffffffffffffffffffffffffffffffffffffffff16631adc48af6040518163ffffffff1660e01b815260040160206040518083038186803b1580156115fd57600080fd5b505afa158015611611573d6000803e3d6000fd5b505050506040513d602081101561162757600080fd5b81019080805190602001909291905050509050600061167f6008546116667001000000000000000000000000000000008561238590919063ffffffff16565b8161166d57fe5b04600a5461249f90919063ffffffff16565b9050600070010000000000000000000000000000000061171161170c600b60008973ffffffffffffffffffffffffffffffffffffffff1673ffffffffffffffffffffffffffffffffffffffff168152602001908152602001600020546116fe6116f96116ea8b6112b4565b8861238590919063ffffffff16565b612527565b61254490919063ffffffff16565b612586565b8161171857fe5b04905061176d600c60008773ffffffffffffffffffffffffffffffffffffffff1673ffffffffffffffffffffffffffffffffffffffff168152602001908152602001600020548261245590919063ffffffff16565b9350505050919050565b61177f61259d565b73ffffffffffffffffffffffffffffffffffffffff166000809054906101000a900473ffffffffffffffffffffffffffffffffffffffff1673ffffffffffffffffffffffffffffffffffffffff1614611840576040517f08c379a00000000000000000000000000000000000000000000000000000000081526004018080602001828103825260208152602001807f4f776e61626c653a2063616c6c6572206973206e6f7420746865206f776e657281525060200191505060405180910390fd5b80600260006101000a81548173ffffffffffffffffffffffffffffffffffffffff021916908373ffffffffffffffffffffffffffffffffffffffff16021790555050565b60008060009054906101000a900473ffffffffffffffffffffffffffffffffffffffff16905090565b600360009054906101000a900473ffffffffffffffffffffffffffffffffffffffff1681565b33600073ffffffffffffffffffffffffffffffffffffffff168173ffffffffffffffffffffffffffffffffffffffff16146119995761191181610742565b600760008373ffffffffffffffffffffffffffffffffffffffff1673ffffffffffffffffffffffffffffffffffffffff1681526020019081526020016000208190555042600660008373ffffffffffffffffffffffffffffffffffffffff1673ffffffffffffffffffffffffffffffffffffffff168152602001908152602001600020819055505b65b5e620f480006119bb6119ac336112b4565b8461249f90919063ffffffff16565b1115611a12576040517f08c379a000000000000000000000000000000000000000000000000000000000815260040180806020018281038252602781526020018061276c6027913960400191505060405180910390fd5b600160009054906101000a900473ffffffffffffffffffffffffffffffffffffffff1673ffffffffffffffffffffffffffffffffffffffff166323b872dd3330856040518463ffffffff1660e01b8152600401808473ffffffffffffffffffffffffffffffffffffffff1673ffffffffffffffffffffffffffffffffffffffff1681526020018373ffffffffffffffffffffffffffffffffffffffff1673ffffffffffffffffffffffffffffffffffffffff1681526020018281526020019350505050602060405180830381600087803b158015611aef57600080fd5b505af1158015611b03573d6000803e3d6000fd5b505050506040513d6020811015611b1957600080fd5b810190808051906020019092919050505050611b408260085461249f90919063ffffffff16565b600881905550611b4e610890565b611bbc611b6e611b6984600a5461238590919063ffffffff16565b612527565b600b60003373ffffffffffffffffffffffffffffffffffffffff1673ffffffffffffffffffffffffffffffffffffffff168152602001908152602001600020546125a590919063ffffffff16565b600b60003373ffffffffffffffffffffffffffffffffffffffff1673ffffffffffffffffffffffffffffffffffffffff16815260200190815260200160002081905550611c5182600560003373ffffffffffffffffffffffffffffffffffffffff1673ffffffffffffffffffffffffffffffffffffffff1681526020019081526020016000205461249f90919063ffffffff16565b600560003373ffffffffffffffffffffffffffffffffffffffff1673ffffffffffffffffffffffffffffffffffffffff168152602001908152602001600020819055503373ffffffffffffffffffffffffffffffffffffffff167f9e71bc8eea02a63969f509818f2dafb9254532904319f9dbda79b67bd34a5f3d836040518082815260200191505060405180910390a25050565b600260009054906101000a900473ffffffffffffffffffffffffffffffffffffffff1681565b6000611d68600c60008473ffffffffffffffffffffffffffffffffffffffff1673ffffffffffffffffffffffffffffffffffffffff16815260200190815260200160002054611d5a84610a77565b61245590919063ffffffff16565b9050919050565b33600073ffffffffffffffffffffffffffffffffffffffff168173ffffffffffffffffffffffffffffffffffffffff1614611e3557611dad81610742565b600760008373ffffffffffffffffffffffffffffffffffffffff1673ffffffffffffffffffffffffffffffffffffffff1681526020019081526020016000208190555042600660008373ffffffffffffffffffffffffffffffffffffffff1673ffffffffffffffffffffffffffffffffffffffff168152602001908152602001600020819055505b611e3d610890565b6000600460009054906101000a900473ffffffffffffffffffffffffffffffffffffffff1673ffffffffffffffffffffffffffffffffffffffff1663e7572230846040518263ffffffff1660e01b81526004018082815260200191505060206040518083038186803b158015611eb257600080fd5b505afa158015611ec6573d6000803e3d6000fd5b505050506040513d6020811015611edc57600080fd5b8101908080519060200190929190505050905060008111611f65576040517f08c379a000000000000000000000000000000000000000000000000000000000815260040180806020018281038252600e8152602001807f4c6f6f74206e6f7420666f756e6400000000000000000000000000000000000081525060200191505060405180910390fd5b80600760003373ffffffffffffffffffffffffffffffffffffffff1673ffffffffffffffffffffffffffffffffffffffff16815260200190815260200160002054101561201a576040517f08c379a000000000000000000000000000000000000000000000000000000000815260040180806020018281038252601b8152602001807f4e6f7420656e6f75676820706f696e747320746f2072656465656d000000000081525060200191505060405180910390fd5b600460009054906101000a900473ffffffffffffffffffffffffffffffffffffffff1673ffffffffffffffffffffffffffffffffffffffff1663db006a75846040518263ffffffff1660e01b815260040180828152602001915050602060405180830381600087803b15801561208f57600080fd5b505af11580156120a3573d6000803e3d6000fd5b505050506040513d60208110156120b957600080fd5b81019080805190602001909291905050505061211d81600760003373ffffffffffffffffffffffffffffffffffffffff1673ffffffffffffffffffffffffffffffffffffffff1681526020019081526020016000205461245590919063ffffffff16565b600760003373ffffffffffffffffffffffffffffffffffffffff1673ffffffffffffffffffffffffffffffffffffffff16815260200190815260200160002081905550505050565b612176612171336112b4565b610c3d565b565b61218061259d565b73ffffffffffffffffffffffffffffffffffffffff166000809054906101000a900473ffffffffffffffffffffffffffffffffffffffff1673ffffffffffffffffffffffffffffffffffffffff1614612241576040517f08c379a00000000000000000000000000000000000000000000000000000000081526004018080602001828103825260208152602001807f4f776e61626c653a2063616c6c6572206973206e6f7420746865206f776e657281525060200191505060405180910390fd5b600073ffffffffffffffffffffffffffffffffffffffff168173ffffffffffffffffffffffffffffffffffffffff1614156122c7576040517f08c379a00000000000000000000000000000000000000000000000000000000081526004018080602001828103825260268152602001806127b46026913960400191505060405180910390fd5b8073ffffffffffffffffffffffffffffffffffffffff166000809054906101000a900473ffffffffffffffffffffffffffffffffffffffff1673ffffffffffffffffffffffffffffffffffffffff167f8be0079c531659141344cd1fd0a4f28419497f9722a3daafe3b4186f6b6457e060405160405180910390a3806000806101000a81548173ffffffffffffffffffffffffffffffffffffffff021916908373ffffffffffffffffffffffffffffffffffffffff16021790555050565b6000808314156123985760009050612405565b60008284029050828482816123a957fe5b0414612400576040517f08c379a00000000000000000000000000000000000000000000000000000000081526004018080602001828103825260218152602001806127da6021913960400191505060405180910390fd5b809150505b92915050565b600061244d83836040518060400160405280601a81526020017f536166654d6174683a206469766973696f6e206279207a65726f0000000000008152506125e5565b905092915050565b600061249783836040518060400160405280601e81526020017f536166654d6174683a207375627472616374696f6e206f766572666c6f7700008152506126ab565b905092915050565b60008082840190508381101561251d576040517f08c379a000000000000000000000000000000000000000000000000000000000815260040180806020018281038252601b8152602001807f536166654d6174683a206164646974696f6e206f766572666c6f77000000000081525060200191505060405180910390fd5b8091505092915050565b600080829050600081121561253b57600080fd5b80915050919050565b60008082840190506000831215801561255d5750838112155b80612573575060008312801561257257508381125b5b61257c57600080fd5b8091505092915050565b60008082121561259557600080fd5b819050919050565b600033905090565b60008082121580156125b957508282840313155b806125d157506000821280156125d0575082828403135b5b6125da57600080fd5b818303905092915050565b60008083118290612691576040517f08c379a00000000000000000000000000000000000000000000000000000000081526004018080602001828103825283818151815260200191508051906020019080838360005b8381101561265657808201518184015260208101905061263b565b50505050905090810190601f1680156126835780820380516001836020036101000a031916815260200191505b509250505060405180910390fd5b50600083858161269d57fe5b049050809150509392505050565b6000838311158290612758576040517f08c379a00000000000000000000000000000000000000000000000000000000081526004018080602001828103825283818151815260200191508051906020019080838360005b8381101561271d578082015181840152602081019050612702565b50505050905090810190601f16801561274a5780820380516001836020036101000a031916815260200191505b509250505060405180910390fd5b506000838503905080915050939250505056fe43616e6e6f74207374616b65206d6f7265207468616e20302e30303032204c6f636b6564204c5043616e6e6f74207769746864726177206d6f7265207468616e2062616c616e63654f776e61626c653a206e6577206f776e657220697320746865207a65726f2061646472657373536166654d6174683a206d756c7469706c69636174696f6e206f766572666c6f77a2646970667358221220f22e6c3d7a1d6e7db793e3e309f8e80319fbe9aea9e2391e8d4c783df5a3db0864736f6c63430006020033",
  "source": "pragma solidity ^0.6.2;\n\nimport \"@openzeppelin/contracts/math/SafeMath.sol\";\nimport \"@openzeppelin/contracts/access/Ownable.sol\";\nimport \"@openzeppelin/contracts/token/ERC20/IERC20.sol\";\nimport \"./IBrainLootbox.sol\";\n\nlibrary SafeMathInt {\n  function mul(int256 a, int256 b) internal pure returns (int256) {\n  // Prevent overflow when multiplying INT256_MIN with -1\n  // https://github.com/RequestNetwork/requestNetwork/issues/43\n  require(!(a == - 2**255 && b == -1) && !(b == - 2**255 && a == -1));\n\n  int256 c = a * b;\n  require((b == 0) || (c / b == a));\n  return c;\n}\n\n  function div(int256 a, int256 b) internal pure returns (int256) {\n    // Prevent overflow when dividing INT256_MIN by -1\n    // https://github.com/RequestNetwork/requestNetwork/issues/43\n    require(!(a == - 2**255 && b == -1) && (b > 0));\n\n    return a / b;\n  }\n\n  function sub(int256 a, int256 b) internal pure returns (int256) {\n    require((b >= 0 && a - b <= a) || (b < 0 && a - b > a));\n\n    return a - b;\n  }\n\n  function add(int256 a, int256 b) internal pure returns (int256) {\n    int256 c = a + b;\n    require((b >= 0 && c >= a) || (b < 0 && c < a));\n    return c;\n  }\n\n  function toUint256Safe(int256 a) internal pure returns (uint256) {\n    require(a >= 0);\n    return uint256(a);\n  }\n}\n\nlibrary SafeMathUint {\n  function toInt256Safe(uint256 a) internal pure returns (int256) {\n    int256 b = int256(a);\n    require(b >= 0);\n    return b;\n  }\n}\n\ninterface IFeeDistributor {\n  function processTransfer() external;\n  function pendingFarmAmount() external view returns (uint256);\n}\n\ncontract LockedLPFarm is Ownable {\n    using SafeMath for uint256;\n    using SafeMathUint for uint256;\n    using SafeMathInt for int256;\n    \n    address public LPAddress;\n    address public DistributorAddress;\n    address public BrainAddress;\n    address public LootboxAddress;\n\n    constructor(address _brain, address _lp, address _distributor) public {\n      LPAddress = _lp;\n      DistributorAddress = _distributor;\n      BrainAddress = _brain;\n    }\n\n    function setLootboxAddress(address _address) public onlyOwner {\n      LootboxAddress = _address;\n    }\n\n    function setDistributorAddress(address _address) public onlyOwner {\n      DistributorAddress = _address;\n    }\n\n\tmapping(address => uint256) private lpBalance;\n\tmapping(address => uint256) public lastUpdateTime;\n\tmapping(address => uint256) public points;\n\n\tevent Staked(address indexed user, uint256 amount);\n\tevent Withdrawn(address indexed user, uint256 amount);\n\n\tmodifier updateReward(address account) {\n\t\tif (account != address(0)) {\n\t\t\tpoints[account] = earned(account);\n\t\t\tlastUpdateTime[account] = block.timestamp;\n\t\t}\n\t\t_;\n\t}\n\n    function balanceOf(address account) public view returns (uint256) {\n        return lpBalance[account];\n    }\n\n\n    function earned(address account) public view returns (uint256) {\n\t\tuint256 blockTime = block.timestamp;\n\t\treturn\n\t\t\tpoints[account].add(\n\t\t\t\tblockTime.sub(lastUpdateTime[account]).mul(1e18).div(86400).mul(\n\t\t\t\t\t(balanceOf(account).mul(25000)).div(1e18)\n\t\t\t\t)\n\t\t\t);\n\t}\n\n\tfunction stake(uint256 amount) public updateReward(msg.sender) {\n \t\trequire(amount.add(balanceOf(msg.sender)) <= 200000000000000, \"Cannot stake more than 0.0002 Locked LP\");\n \t    IERC20(LPAddress).transferFrom(msg.sender, address(this), amount);\n \t    totalSupply = totalSupply.add(amount);\n \t    distributeDividends();\n \t    magnifiedDividendCorrections[msg.sender] = magnifiedDividendCorrections[msg.sender].sub((magnifiedDividendPerShare.mul(amount)).toInt256Safe());\n        lpBalance[msg.sender] = lpBalance[msg.sender].add(amount);\n\t\temit Staked(msg.sender, amount);\n\t}\n\n\tfunction withdraw(uint256 amount) public updateReward(msg.sender) {\n\t\trequire(amount > 0, \"Cannot withdraw 0\");\n\t\trequire(amount <= balanceOf(msg.sender), \"Cannot withdraw more than balance\");\n\t\tIERC20(LPAddress).transfer(msg.sender, amount);\n\t\ttotalSupply = totalSupply.sub(amount);\n\t\tdistributeDividends();\n\t\tmagnifiedDividendCorrections[msg.sender] = magnifiedDividendCorrections[msg.sender].add((magnifiedDividendPerShare.mul(amount)).toInt256Safe());\n        lpBalance[msg.sender] = lpBalance[msg.sender].sub(amount);\n\t\temit Withdrawn(msg.sender, amount);\n\t}\n\n\tfunction exit() external {\n\t\twithdraw(balanceOf(msg.sender));\n\t}\n    \n\tfunction redeem(uint256 _lootbox) public updateReward(msg.sender) {\n\t    distributeDividends();\n\t    uint256 price = IBrainLootbox(LootboxAddress).getPrice(_lootbox);\n\t\trequire(price > 0, \"Loot not found\");\n\t\trequire(points[msg.sender] >= price, \"Not enough points to redeem\");\n\t\tIBrainLootbox(LootboxAddress).redeem(_lootbox);\n\t\tpoints[msg.sender] = points[msg.sender].sub(price);\n\t}\n\t\n\t// $BRAIN Dividends\n\t// Based off https://github.com/Roger-Wu/erc1726-dividend-paying-token\n\tevent DividendsDistributed(uint256 amount);\n\tevent DividendWithdrawn(address to, uint256 amount);\n\t\n\tuint256 private totalSupply;\n\taddress public Distributor;\n\t\n\tfunction setDistributor(address _Distributor) public onlyOwner {\n\t   Distributor = _Distributor;\n\t}\n\t\n\tuint256 constant internal magnitude = 2**128;\n    uint256 internal magnifiedDividendPerShare;\n    mapping(address => int256) internal magnifiedDividendCorrections;\n    mapping(address => uint256) internal withdrawnDividends;\n    \n    uint256 internal lastBrainBalance;\n    \n    function distributeDividends() public {\n        uint256 currentBrainBalance = IERC20(BrainAddress).balanceOf(address(this));\n        if (totalSupply > 0 && currentBrainBalance > lastBrainBalance) {\n            uint256 amount = currentBrainBalance.sub(lastBrainBalance);\n            lastBrainBalance = amount;\n            magnifiedDividendPerShare = magnifiedDividendPerShare.add(amount.mul(magnitude) / totalSupply);\n            emit DividendsDistributed(amount);\n        }\n    }\n    \n    function accumulativeDividendOf(address _owner) public view returns(uint256) {\n        return magnifiedDividendPerShare.mul(balanceOf(_owner)).toInt256Safe().add(magnifiedDividendCorrections[_owner]).toUint256Safe() / magnitude;\n    }\n    \n    function withdrawableDividendOf(address _owner) public view returns(uint256) {\n        return accumulativeDividendOf(_owner).sub(withdrawnDividends[_owner]);\n    }\n\n    function pendingDividendsOf(address _owner) public view returns (uint256) {\n\tuint256 pending = IFeeDistributor(DistributorAddress).pendingFarmAmount();\n\tuint256 magnified = magnifiedDividendPerShare.add(pending.mul(magnitude) / totalSupply);\n\tuint256 accumulativeDiv = magnified.mul(balanceOf(_owner)).toInt256Safe().add(magnifiedDividendCorrections[_owner]).toUint256Safe() / magnitude;\n\treturn accumulativeDiv.sub(withdrawnDividends[_owner]);\n    }\n    \n    function withdrawDividend() public {\n        distributeDividends();\n        uint256 _withdrawableDividend = withdrawableDividendOf(msg.sender);\n        if (_withdrawableDividend > 0) {\n            withdrawnDividends[msg.sender] = withdrawnDividends[msg.sender].add(_withdrawableDividend);\n            emit DividendWithdrawn(msg.sender, _withdrawableDividend);\n            IERC20(BrainAddress).transfer(msg.sender, _withdrawableDividend);\n            lastBrainBalance = lastBrainBalance.sub(_withdrawableDividend);\n        }\n    }\n}\n",
  "sourcePath": "/home/jimmy/DecentralisedTech/projects/work/NoBrainer.Finance/Contracts/contracts/LockedLPFarm.sol",
  "compiler": {
    "name": "solc",
    "version": "0.6.2+commit.bacdbe57.Emscripten.clang"
  },
  "schemaVersion": "3.2.4",
  "updatedAt": "2020-10-07T08:18:04.445Z",
  "devdoc": {
    "methods": {
      "owner()": {
        "details": "Returns the address of the current owner."
      },
      "renounceOwnership()": {
        "details": "Leaves the contract without owner. It will not be possible to call `onlyOwner` functions anymore. Can only be called by the current owner.     * NOTE: Renouncing ownership will leave the contract without an owner, thereby removing any functionality that is only available to the owner."
      },
      "transferOwnership(address)": {
        "details": "Transfers ownership of the contract to a new account (`newOwner`). Can only be called by the current owner."
      }
    }
  },
  "userdoc": {
    "methods": {}
  }
}